S00E0000752D626F6F742E73726563C0
S31517800000B80000EA14F09FE514F09FE514F09FE519
S3151780001014F09FE514F09FE514F09FE514F09FE523
S3151780002060008017C0008017200180178001801715
S31517800030E001801740028017A0028017EFBEADDE61
S31517800040DEC0AD0B00F020E300F020E300F020E3E4
S3151780005000F020E300F020E300F020E300F020E337
S3151780006028D01FE500E08DE500E04FE104E08DE53F
S3151780007013D0A0E30DF069E10FE0A0E10EF0B0E137
S3151780008048D04DE2FF1F8DE850201FE50C0092E8FF
S3151780009048008DE234508DE20E10A0E10F0085E8FE
S315178000A00D00A0E1750700FA00F020E300F020E3C9
S315178000B000F020E300F020E300F020E300F020E3D7
S315178000C088D01FE500E08DE500E04FE104E08DE57F
S315178000D013D0A0E30DF069E10FE0A0E10EF0B0E1D7
S315178000E048D04DE2FF1F8DE8B0201FE50C0092E83F
S315178000F048008DE234508DE20E10A0E10F0085E89E
S315178001000D00A0E1630700FA00F020E300F020E37A
S3151780011000F020E300F020E300F020E300F020E376
S31517800120E8D01FE500E08DE500E04FE104E08DE5BE
S3151780013013D0A0E30DF069E10FE0A0E10EF0B0E176
S3151780014048D04DE2FF1F8DE810211FE50C0092E87D
S3151780015048008DE234508DE20E10A0E10F0085E83D
S315178001600D00A0E1510700FA00F020E300F020E32C
S3151780017000F020E300F020E300F020E300F020E316
S3151780018048D11FE500E08DE500E04FE104E08DE5FD
S3151780019013D0A0E30DF069E10FE0A0E10EF0B0E116
S315178001A048D04DE2FF1F8DE870211FE50C0092E8BD
S315178001B048008DE234508DE20E10A0E10F0085E8DD
S315178001C00D00A0E13F0700FA00F020E300F020E3DE
S315178001D000F020E300F020E300F020E300F020E3B6
S315178001E0A8D11FE500E08DE500E04FE104E08DE53D
S315178001F013D0A0E30DF069E10FE0A0E10EF0B0E1B6
S3151780020048D04DE2FF1F8DE8D0211FE50C0092E8FC
S3151780021048008DE234508DE20E10A0E10F0085E87C
S315178002200D00A0E12D0700FA00F020E300F020E38F
S3151780023000F020E300F020E300F020E300F020E355
S3151780024008D21FE500E08DE500E04FE104E08DE57B
S3151780025013D0A0E30DF069E10FE0A0E10EF0B0E155
S3151780026048D04DE2FF1F8DE830221FE50C0092E83B
S3151780027048008DE234508DE20E10A0E10F0085E81C
S315178002800D00A0E1210700FA00F020E300F020E33B
S3151780029000F020E300F020E300F020E300F020E3F5
S315178002A068D21FE500E08DE500E04FE104E08DE5BB
S315178002B013D0A0E30DF069E10FE0A0E10EF0B0E1F5
S315178002C048D04DE2FF1F8DE890221FE50C0092E87B
S315178002D048008DE234508DE20E10A0E10F0085E8BC
S315178002E00D00A0E1030700FA120000EA00000FE1F3
S315178002F01F1000E21A0031E31F00C013130080138A
S31517800300C00080E300F029E1100F11EE020AC0E366
S31517800310100F01EEA8009FE5100F0CEE060000EBFC
S31517800320260000EB7C0500EB150F07EE9A0F07EEFC
S31517800330950F07EE1EFF2FE1EBFFFFEA0000A0E304
S31517800340170F08EE150F07EED50F07EE9A0F07EE64
S31517800350950F07EE100F11EE020AC0E30700C0E3F0
S31517800360020080E3020B80E3010A80E3100F01EE9F
S31517800370300F1FEE100080E3300F0FEE300F1FEE99
S31517800380400080E3300F0FEE300F1FEE020B80E335
S31517800390300F0FEE300F1FEE020680E3300F0FEE91
S315178003A00E50A0E1101F10EE213AA0E10F3003E2A4
S315178003B00F4001E20322A0E1022084E105F0A0E1CB
S315178003C0000000EA0000801718D09FE507D0CDE31C
S315178003D0F8D04DE207D0CDE30D90A0E100502DE97E
S315178003E0E10000FA0090BDE800FF93002DE9F04187
S315178003F030EE306F00214C00631826FA03F303F0B2
S315178004000703023B022B46D840EE104F30EE107F83
S31517800410C7F3C90307F0070E03F101080EF1040E9F
S31517800420C7F34E374FF0FF35C4465FEA5C0C05F1CC
S31517800430010201D01546F8E713EA080F18BFAA1C60
S315178004400128C2F1200211D103FA02F83D4648EA83
S31517800450040805FA0EFC4CEA080C07EE56CF15F180
S31517800460FF35F6D213F1FF33EED212E0022812D1FE
S3151780047003FA02F83D4648EA040805FA0EFC4CEAE8
S31517800480080C07EE5ECF15F1FF35F6D213F1FF3361
S31517800490EED2BFF34F8F01310729ACD1BDE8F0817A
S315178004A0002307EE153F07EED53FBFF34F8FBFF3F8
S315178004B06F8F704708B50220FFF798FFBDE8084091
S315178004C001F0FABB08B50120FFF790FFBDE8084099
S315178004D001F0ECBB08B501F065F8FFF7F3FF0023D1
S315178004E008EE173F08EE163F08EE153FBFF34F8FFE
S315178004F0BFF36F8F08BD30EE103F012203F007035D
S3151780050004339A4053420340994203D907EE3E3F3C
S315178005101344F9E7BFF34F8F01F0D4BB08B5FFF744
S31517800520EAFF002308EE173F08EE163F08EE153F41
S31517800530BFF34F8FBFF36F8F08BD00002DE9F041D2
S3151780054006460F4630EE105F05F007052B1D012571
S315178005509D4005F1FF3810EA080F09D00246741E30
S315178005601149124825F0EDFE63196C421C4000E0D4
S31517800570044617EA080F07D03A460B490C4825F068
S31517800580E0FE6B423B4000E03B469C4203D207EEBF
S31517800590364F2C44F9E7BFF34F8F39463046BDE8BF
S315178005A0F04101F09FBB00BFCBBB8217B6D982172C
S315178005B0E9D98217704710B5044601F0D4FBE307D3
S315178005C00AD501F05AFD01F013F8FFF77BFF01F00A
S315178005D012FDFFF765FF09E001F00DFDFFF760FFDC
S315178005E0FFF768FFFFF75CFF01F0FBFCFFF7E2FF01
S315178005F0002010BD0320FFF7DEBF4FF42003586895
S3151780060000F0030070470000184910B5D1F8802212
S31517800610C2F30743602B14D0D1F860224FF420031E
S315178006205968C2F3074301F00301612B03D10029EF
S3151780063008BF652306E0632B04D1012908BF67230A
S3151780064000E00021C2F3072048B123F00404632C8D
S3151780065005D1012900F1FF3014BF692368230130C2
S31517800660D2B202EB001040EA033010BD00800C02B4
S3151780067008B5FFF7C9FFC0F30733652B04D1C0F35D
S315178006800B0040F4C22008BD672B04BFC0F30B00D4
S3151780069040F4C62008BD000010B500F0B1FF154A1A
S315178006A0536823F44033536002F58042D2F85031B1
S315178006B01B06FBD5104B08220020C3F8542100F0E7
S315178006C03FFA0E4B98420DD10A4C00F0D9F963695F
S315178006D00B4A23F4E053A0FB02010A0D013A43EAC1
S315178006E082236361002000F0BFFF00F0EBFF00203C
S315178006F010BD00BF00400C0200800C02007B9A17C9
S31517800700239A08020E4A08B5D2F84031D2F87011EA
S3151780071021F07C51C3F38440C2F87011C0F11300E5
S315178007200028B8BF404248B123F4F80343F498032E
S31517800730C2F8403100EB400025F010F9002008BDC3
S3151780074000800C02074BD3F83026100A4A700870BF
S31517800750D3F820361A0E4B718A701A0CCA701A0A79
S315178007600A71704700C01B027047000008B5FFF773
S315178007704BFFC0F30730622837D0FFF745FFC0F32A
S315178007800730642831D0194B9A69C2F34153C2F3A3
S315178007908142022B09D0022A0ED0012B15D0012AAD
S315178007A013D0032B124B04D110E0012A1AD04FF025
S315178007B08023032A06D109E0012B13D0032B11D0EE
S315178007C04FF0802343F4000300E0094B094A4FF0AA
S315178007D08031C2F8F410C2F80431C2F8F810C2F8A2
S315178007E0083108BD4FF08023F0E708BD00400C02A2
S315178007F08080008000800C0238B50C4D2C78E4B2CE
S3151780080044F0800340F6B8302B7025F0A7F844F0F3
S31517800810C00340F6B8302B7025F0A0F844F0C80412
S315178008202C70034B00221A7038BD00BF003012009F
S3151780083005401200084A136F43F033031367074BBB
S3151780084001211970536B23F4FF7323F0010343F4CB
S31517800850A8735363704700BF00400C02054012000F
S31517800860054B10B51B685C6900F0BCFDC4F301210C
S31517800870013128F0EAEC10BD6099831738B51D4B06
S315178008801D4A196844F21003CB584C6A03F00303C8
S315178008905B0014335343194AA3FB02239D08FFF7C2
S315178008A0B3FEC0F30730602805D1134B14F0400F01
S315178008B018BF1D4617E0FFF7A7FEC0F3073062285B
S315178008C0F3D0FFF7A1FEC0F307306928EDD0FFF705
S315178008D09BFEC0F307306828E7D0FFF795FEC0F375
S315178008E007306428E1D004F03F012846013128F00B
S315178008F0ACEC38BD6099831700366E01ABAAAAAAED
S31517800900012837B50C460CD002282FD1194B44F243
S31517800910F0021B689D5844F210029A5802F003029F
S3151780092011E0FFF771FEC0F30730642801D0032C5E
S315178009301CD0104B1B6803F58242156844F23002AF
S315178009409A5802F0010252000B4B14323F21E400F1
S3151780095002A853431222A1402940E140A3FB022358
S3151780096060E9022324F0CCF9009800E0002003B058
S3151780097030BD00BF6099831700366E01144B10B5D2
S315178009801A68D369546A032819D8DFE800F0020772
S315178009900C11C4F3C22403F480330DE0C4F302446C
S315178009A003F4003308E0C4F3C24403F4802303E05E
S315178009B0C4F3825403F4002313B1002101E0002409
S315178009C002210120FFF79CFF611C28F03EEC10BD29
S315178009D060998317054B1A68136F10B143F4405308
S315178009E001E023F440531367704700BF609983175C
S315178009F0064B1A68D2F8803010B143F0030301E032
S31517800A0023F00303C2F88030704700BF60998317BD
S31517800A10032938B504462DD8184D0DD02A680323D7
S31517800A204900063103FA01F1136F08B1194301E042
S31517800A3023EA010111671BE0FFF7E6FDC0F30730D4
S31517800A40622804D12B684FF04071803309E0FFF795
S31517800A50DBFDC0F307306428F4D02B684FF4407160
S31517800A606C331A680CB10A4301E022EA01021A6054
S31517800A70002038BD6FF0150038BD00BF6099831709
S31517800A801F4B10B51B68596911F0007414D09A69F9
S31517800A90C1F3C261C2F3013222B1022A194888BF53
S31517800AA0002029E044F210029858164B00F00300F4
S31517800AB04000143058431FE09869C0F381400228DC
S31517800AC00FD0032812D0012809D044F23002985843
S31517800AD00C4B00F001004000143058430BE0022104
S31517800AE001E001202146FFF70BFF04E002210120D8
S31517800AF0FFF706FF40082146013128F0A6EB10BD07
S31517800B006099831700366E010B4B10B51B685B69AE
S31517800B105A06C3F3024408D51B0647BF0221012094
S31517800B2001210220FFF7ECFE01E0FFF7A9FF611C08
S31517800B3028F08AEB10BD00BF60998317FFF79EBE1A
S31517800B402DE9F0410146102800F23281DFE810F0D6
S31517800B50110020002C0124002800520056008B001B
S31517800B608F00AE002101230128012A012C013001B3
S31517800B702800944B1B68196903F58043186801F0A0
S31517800B800701914B013100F07F0058434008FCE084
S31517800B90BDE8F041FFF774BFBDE8F041FFF760BECF
S31517800BA0884B1B68DC69FFF72FFDC0F30730602879
S31517800BB003D1620600F1028117E0FFF725FDC0F326
S31517800BC007306228F5D0FFF71FFDC0F30730692875
S31517800BD0EFD0FFF719FDC0F307306828E9D0FFF784
S31517800BE013FDC0F307306428E3D0FFF739FE04F00E
S31517800BF03F01C9E0BDE8F041FFF740BE714D2B6854
S31517800C009E6BFFF701FDC6F3C5440134C0F3073069
S31517800C10692804D173031AD521466B48B5E0FFF7C7
S31517800C20F3FCC0F307306828F4D0FFF7EDFCC0F368
S31517800C3007306028EED0FFF7E7FCC0F3073062284D
S31517800C40E8D0FFF7E1FCC0F307306428E2D02A68C2
S31517800C5044F210035C48E100D35803F003035B00AA
S31517800C601433584391E0BDE8F041FFF74DBF554B1C
S31517800C701B68D969C1F3C254C1F34171022911D0D6
S31517800C8003290ED0012902D0FFF73EFF7AE044F2FE
S31517800C9010024D489B5803F003035B0014335843E7
S31517800CA070E000210120FFF72BFE6BE0454E33687D
S31517800CB09F695C69FFF7A8FCC0F30730622805D1E6
S31517800CC014F08068C4F3C20539D010E0FFF79CFC96
S31517800CD0C0F307306428F3D0FFF796FCC0F30730CC
S31517800CE06028EDD0FFF7CCFEC4F3C2414CE0FFF786
S31517800CF08BFC04F0070407F48017C0F307306028CD
S31517800D000BD13148002F3AD1326844F21003D358A9
S31517800D1003F003035B00143309E02B4B316847B1AB
S31517800D2044F23002885800F00100400014305843CE
S31517800D3025E044F21002885800F00300F5E7C7F360
S31517800D404150022810D0032813D001280AD03268C0
S31517800D5044F23003D0581C4B00F001004000143089
S31517800D6058430BE0022101E001204146FFF7C8FDF9
S31517800D7004E002210120FFF7C3FD40084446691CA1
S31517800D8028F062EA611C00E0013128F05EEABDE8CE
S31517800D90F081002000E00120BDE8F041FFF7EEBDAD
S31517800DA00220F9E70320F7E7BDE8F04100F01ABB08
S31517800DB0064825F0C6FA0020BDE8F0810248BDE84E
S31517800DC0F08100BF6099831700366E016BDA821740
S31517800DD00320FFF7B5BE000070B5544E544D554CE1
S31517800DE0336803F58043186800F07F00684340082E
S31517800DF0A0FB04015048890C25F0A3FA326844F207
S31517800E003003D05800F00100400014306843A0FB2F
S31517800E1004014A48890C25F094FA326844F2100383
S31517800E20D05800F00300400014306843A0FB04013B
S31517800E304348890C25F085FA326844F2E003D35883
S31517800E4003F00303581C00EB53003E4B5843A0FB9B
S31517800E5004013D483D4C890C25F073FA3C4825F032
S31517800E6070FA0320FFF76CFEA0FB04013948890945
S31517800E7025F067FA0520FFF763FEA0FB04013648C5
S31517800E80890925F05EFA0220FFF75AFEA0FB0401B6
S31517800E903248890925F055FA0720FFF751FEA0FB3E
S31517800EA004012F48890925F04CFA0920FFF748FED7
S31517800EB0A0FB04012B48890925F043FA0A20FFF77E
S31517800EC03FFEA0FB04012848890925F03AFA0B2032
S31517800ED0FFF736FEA0FB04012448890925F031FA6D
S31517800EE00C20FFF72DFEA0FB04012148890925F068
S31517800EF028FA0D20FFF724FEA0FB04011D48890957
S31517800F0025F01FFA0820FFF71BFEA0FB04011A48DD
S31517800F10890925F016FA0420FFF712FEA0FB0401B3
S31517800F201648890925F00DFA002070BD6099831738
S31517800F3000366E0183DE1B4384DA821798DA8217AE
S31517800F40ACDA821740787D01C0DA8217D34D6210EA
S31517800F501FE38217D4DA8217E8DA8217FCDA821748
S31517800F6010DB821724DB821738DB82174CDB82175C
S31517800F7060DB821774DB821788DB82179CDB82170C
S31517800F8010B50E4C636F43F003036367FFF73CFBA3
S31517800F90C0F3073069280AD1D4F8803043F04073FC
S31517800FA0C4F88030636F43F0C003636710BDFFF7E3
S31517800FB02BFBC0F307306828EED010BD00400C021B
S31517800FC0044A054B116853F8203000200B431360F1
S31517800FD0704700BF00800D02C49A821708B5014674
S31517800FE0064B1A68064B53F8203006481A4214BF28
S31517800FF00122002225F0A5F9002008BD00800D02E8
S31517801000B49A8217BFDB82171346002110B51022B8
S315178010100446186825F0F2F9022C06D0032C07D05F
S31517801020012C10D1094B986204E0084B186301E034
S31517801030064B9863054A0020054B116853F82430F0
S315178010400B43136010BD012010BD00BF00800D0239
S31517801050B49A821710B50446FFF7CFFAA04234BF69
S315178010600020012010BD0000044A054B53F82010BC
S315178010700020136823EA01031360704700800D026E
S31517801080B49A821700F07F422DE9F84501F00F03D5
S31517801090160E044646EA03261F0E1D4B0D46C0F351
S315178010A00B0A0B404FEA5328FFF7AEFA000B00F0F6
S315178010B0F000702802D0BAF1000F07D00AF1037337
S315178010C005F4F87103F500330A091A6056EA07031F
S315178010D007D006F1037605F0F04306F50036DB0EEA
S315178010E0336018F4003F10D10A4A00231D4014407C
S315178010F02B0B220B42EA055252EA03011EBF02F15D
S31517801100037202F50032C2F80080BDE8F88500BF89
S3151780111000FEFF0700F0FF0070B504460E46FFF786
S3151780112073FAC0F30730632806D0FFF76DFAC0F35A
S315178011300730672818BF08340025B54204F1100414
S3151780114005D054E904010135FFF79CFFF5E770BD1B
S31517801150344B4FF4004210B500211A606422013ACD
S315178011601960FCD12F4B1B6823F4E074FFF74CFAF8
S31517801170C0F30730632805D1FFF746FAC0B21028A7
S315178011801ED805E0FFF740FAC0F307306728F3D07B
S31517801190FFF73AFAC0F30730612811D0FFF734FA10
S315178011A0C0F3073065280BD0FFF72EFAC0F3073048
S315178011B0622805D0FFF728FAC0F30730642825D1AF
S315178011C0FFF722FAC0F30730612805D0FFF71CFA1C
S315178011D0C0F30730652808D1124A44F4A8634FF440
S315178011E0E04143F00103516012E0FFF70DFAC0F3B7
S315178011F007306228F0D0FFF707FAC0F30730642864
S31517801200EAD044F4A07343F0010301E044F04103AC
S31517801210044A00201360526AC9F8DC20C9F8D8003E
S3151780122010BD00BF00800902014B586A704700BF86
S315178012300080090208B5FFF7E7F9C0F3073063287E
S3151780124005D1FFF7E1F9C0B2102823D805E0FFF7DB
S31517801250DBF9C0F307306728F3D0FFF7D5F9C0F36A
S315178012600730612816D0FFF7CFF9C0F30730652806
S3151780127010D0FFF7C9F9C0F3073062280AD0FFF7F5
S31517801280C3F9C0F30730642804D00420BDE80840AA
S31517801290FFF756BC004808BDC0C62D000E4B10B5CB
S315178012A019689C690D48C1F30253C1F302620C3267
S315178012B0C35C0B481A44C1F30143C1F380711944C7
S315178012C0C4F34013C35C13440B44202B1ABF01206D
S315178012D098404FF0704010BD00001B0294BE8217D5
S315178012E092BE8217513821289ABF024B53F8200095
S315178012F00148704790998217231C831737B5FFF7D4
S3151780130083F90446C0F30730FFF7ECFF0546002044
S31517801310FFF716FC224BC4F30312A0FB03012148E7
S315178013208B0C2946009304F00F0325F00AF81E4A02
S3151780133093689360112B1D4A136029D00BD8042B01
S315178013401AD002D8012B23D020E0082B16D0102BC9
S315178013501CD117491DE0802B14D005D8202B0FD010
S31517801360402B13D1134914E0B3F5807F0CD0B3F516
S31517801370803F0BD110490CE010490AE0104908E06C
S31517801380104906E0104904E0104902E0104900E0D0
S315178013901049114824F0D5FF002003B030BD00BF97
S315178013A083DE1B4320DC821700800D026499831726
S315178013B0DFDB8217F0DB821708DC8217D2DB821716
S315178013C0D6DB8217E4DB8217F8DB8217FEDB821700
S315178013D012DC8217CEDB82174CDC821719F060B9C4
S315178013E017F072BA054B10B55C69FFF749FBC4F362
S315178013F08221013127F028EF10BD00BF00400C0273
S3151780140014F0B0B810B50A204C46FFF799FBC4F80C
S31517801410D000002010BD0000F7B5044690F82800CC
S3151780142016F022FC207C16F01FFCD4E90801FFF782
S3151780143029FED4E90201FFF725FE94F8280016F055
S31517801440F7FB0546207C16F0F3FB05EA00020346F8
S31517801450012A01D1002537E0227C214921480192B2
S3151780146094F8282000922A4624F06BFF092500213C
S31517801470207C16F00FFC322024F070FA207C16F0B0
S31517801480F3FB322024F06AFA013DF0D1284624F086
S3151780149023FA074694F8280016F0CAFB0546207CDF
S315178014A016F0C6FB05EA00030646012BD2D038464E
S315178014B024F012FAC828EDD92A46334608496FF020
S315178014C00F05094824F03DFFD4E90601FFF7DAFD39
S315178014D0D4E90001FFF7D6FD284603B0F0BD00BF5B
S315178014E011BC8217A1DC8217CCDC821703282DE961
S315178014F0F041064686B00F4690461D4631D80246BD
S315178015001A4903A824F010FF03A995F8280016F0A6
S31517801510A3FB40BB3246164903A824F005FF03A94F
S31517801520287C16F099FB0446A8B931460120FFF7A7
S315178015306FFA044660B92846FFF76EFF044638B936
S31517801540009542460B4B3946304616F01DFF06E08E
S31517801550287C16F087FB95F8280016F083FB204623
S3151780156001E06FF0150006B0BDE8F081F4DC821754
S3151780157000DD82171914801708B5FEF7A3FF00F050
S315178015804DFD1E220649002000F0FBFC1E224FF45B
S3151780159080214FF41000BDE8084000F0F2BC00BF70
S315178015A0FFFF0F000F4A136843F4800313600E4B37
S315178015B01A6822F001021A600C494FF499720A6070
S315178015C04A6001F658610A6842F0E1420A602031A2
S315178015D00A6842F003020A601A6842F001021A602A
S315178015E0704700BF0421A0000021A0000821A00099
S315178015F0024A136823F00103136070470021A00085
S3151780160008B516494FF077330B604B60144A136051
S31517801610536000230B644B648B64CB640B65136434
S3151780162053649364D3641365FEF7EEFFC0F30730F4
S3151780163062280BD10B4B4FF077321A605A60002213
S315178016401A645A649A64DA641A6508BDFEF7DCFF71
S31517801650000B00F0F0007028ECD008BD00C0070220
S3151780166000C0170200C0270238B50446FEF7CCFF24
S31517801670124BA4B2124AC0F3073064280CBF154622
S315178016801D46A3F5E6131C814FF003731C81FEF7E5
S31517801690BBFFC0F30730622801D12C8138BDFEF716
S315178016A0B3FFC0F307306428F7D0FEF7ADFF000B02
S315178016B000F0F0007028F0D038BD00BF00802802F7
S315178016C000401E02024A136823F001031360704715
S315178016D000800D02054B18645A6C10B142F0805287
S315178016E001E022F080525A64704700BF00800D02D5
S315178016F02DE9F0412E480DF03FFB2E4F054620B1C0
S3151780170000244C26DFF8B08023E02B4E0446B046E3
S315178017103B689C420AD2F36883B13046984768B1D2
S3151780172075692648294624F00CFEADB9D8F81450A9
S3151780173000242348294624F004FE0DE001344C3654
S31517801740E6E706FB04832846596923F031FF18B16B
S3151780175001343B689C42F4D33B689C4220D24C2090
S31517801760154D002160432E18B2683046143014F098
S3151780177043F9024668B933690BB1304698474C230B
S31517801780104803FB0454236AE269616924F0D9FD82
S3151780179003E071690C4824F0D4FD0020BDE8F08180
S315178017A029460A4824F0CDFD6FF01500BDE8F08173
S315178017B00CDD8217209A8317149F821712DD8217E2
S315178017C02ADD82174CDD821761DD821782DD82174B
S315178017D0024B1878C0B200F0F2007047043012003E
S315178017E02DE9F04D00274FF07C0B0446B846144B75
S315178017F053F82850ADB1083555F8080C88B123F041
S31517801800FFFE064600F1010A4CB1024626442046E1
S31517801810544455F8081C23F08CFF86F800B05744BB
S31517801820E9E708F10108B8F1020FE0D124B10B22DC
S315178018300449601E23F07DFF07F10A00BDE8F08D8D
S315178018401C2C841798DD8217012A2DE9F04D9046B6
S315178018501F4602DC4FF0FF352FE0D3F804A0002691
S31517801860DFF860B05BF826404CB90136022EF1D00E
S31517801870F8E7514623F09CFE054620B108342068C8
S315178018800028F6D1F1E7002CE4D0B8F1030F07D181
S315178018900B49B86823F08CFE0028DBD12E4600E072
S315178018A001266068FFF716FF3EB163682BB10023E8
S315178018B01A461946184600F037FB2846BDE8F08DBC
S315178018C0A3DD82171C2C841738B505460A4C206968
S315178018D018B10DF0FBFE00232361084B0020084A40
S315178018E01D605A60FFF77CFF0DF0A6FF054610B105
S315178018F0FFF776FF256138BD482184171C2C84177E
S315178019006CA68217044B1B78DBB213F0F20F0CBF51
S3151780191001200020704700BF0430120070D09FE569
S3151780192007D0CDE30D00A0E17E0200FA00D0A0E13A
S315178019300000A0E3960800FA40D099E507D0CDE3DA
S31517801940009099E5F89049E20CE08FE2440099E51A
S3151780195000E08EE0300099E5140000EA100000EBF5
S3151780196070FAFFEB2C009FE52C109FE50020A0E373
S31517801970010050E10020803504008032FBFFFF3ADA
S31517801980540800FA530800FB0900A0E1301099E5C6
S3151780199008F09FE500FF93001C2C8417D0D6881774
S315178019A0D13C8017300099E5100F0CEE1EFF2FE102
S315178019B04C109FE5014050E01000000A44209FE537
S315178019C0000CB1E8000CA0E8020051E1FBFFFF3ADA
S315178019D034209FE534309FE50300B2E8FF1001E21B
S315178019E0170051E30300001A040080E0001090E509
S315178019F0041081E0001080E5030052E1F5FFFF3AFD
S31517801A001EFF2FE1000080171C2C84171C2C8417AF
S31517801A107CB284171FB50023D9F800200393916CE5
S31517801A20D26C8DE80A0001230292694602AA04F055
S31517801A3033FF05B05DF804FBD9F8003073B505465A
S31517801A401B6C0C46066E174801930DF095F948B135
S31517801A5001AA102124F00AFD002820DB01991248DB
S31517801A6024F06FFC0F2004F4007400F070FC0F4B09
S31517801A700F491048002C08BF194624F062FCAA208B
S31517801A8000F065FCFEF7B6FD2B6F0BB1EA6E02E030
S31517801A90D9F800305A6C14B901992046B04702B06C
S31517801AA070BD00BFE4DD8217EBDD82174096831782
S31517801AB0CDDD821710DE8217D9F80020D9F80030CD
S31517801AC06946926CA1F58051DB6C1A44521A22F042
S31517801AD017BA7047F8B5064634480DF04DF9336F87
S31517801AE04BB130460EF0D5FD00285ED0304824F035
S31517801AF028FC23F045F9D9F800102E4C4D6C05219A
S31517801B0085E812002C4CAB60EB602B6105F1140352
S31517801B102360D9F80030B8B1074610F8013B202B5F
S31517801B20FAD08BB1254B3846AB6123F069FD394620
S31517801B300D30800868612068083023F001FD23681E
S31517801B401A6803EB82032360FEF792FD23681C4A0B
S31517801B50032183E806001B4998604D46D9F8002073
S31517801B6004201961D860916C9961D26C5A6103F11E
S31517801B701C02716E226079B1B26E6AB12D68521AE3
S31517801B80114D2C3343F8042C0B4A43F80C5C43F85D
S31517801B90100C43F8081C13600748FFF79AFF0022BA
S31517801BA04B461B6823685A601A60F8BD9EF68217E3
S31517801BB029DE821701004154242C841709004154C9
S31517801BC0070041540200415405004254F8B510F0FD
S31517801BD0C00504461E4617D110F4807703D01846E1
S31517801BE0FFF778FF12E010F4C06505D00146184656
S31517801BF0FFF722FF3D4609E01846FFF76BFF2146A0
S31517801C003046FFF719FF01E04FF0FF352846F8BD3C
S31517801C1010B50A4B446A9C4204D009480DF016FB4E
S31517801C20012010BD836A0B60C36A13600A68014678
S31517801C30044824F086FB002010BD00BF18286F01CA
S31517801C4049DE821766DE821710B50446C06E58B114
S31517801C50074921F023FC002806DAE06EFFF7DAFE43
S31517801C6010B104480DF0F2FABDE81040FEF7C2BC79
S31517801C7091DE821799DE8217036EC06E18470000B1
S31517801C80084B1B6813F4803F14BF4FF480334FF40F
S31517801C908073013B03600368002BFCD1024A1360F3
S31517801CA0704700BF0421A0003027A0000148FFF726
S31517801CB0E7BF00BF7C27A0000148FFF7E1BF00BF41
S31517801CC0FC27A000054B20F01F00884202D218601F
S31517801CD02030FAE7024B00221A607047F027A000DF
S31517801CE03027A000C20638B504460D4607D00246EF
S31517801CF00C490D481F3424F024FB24F01F04EB06EF
S31517801D0006D02A460749094825F01F0524F019FBEE
S31517801D10074BA54202D91C602034FAE7054B0022EF
S31517801D201A6038BDE1BB8217B6D98217E9D98217EF
S31517801D307027A0003027A000D9F840200020C9F8C6
S31517801D403C20D9F84020103AC9F840207047000047
S31517801D50034A0020D9F83C3008331360704700BF18
S31517801D6040008017704700207047000008B501486B
S31517801D7024F03AFBBBDE821770B5A2B004468022E8
S31517801D80334902A823F0D5FCA26BE16B3148256C49
S31517801D9024F0D7FA05F07046D9F80420D2070AD569
S31517801DA0D9F84410A06BD9F84420E36B821A2A48D5
S31517801DB0591A24F0C6FAE36A226B616B274824F016
S31517801DC0C0FA236A626AA16A254824F0BAFA236997
S31517801DD0244800936369A269E16924F0B2FA2368FB
S31517801DE021480093E1686368A26824F0AAFA002E56
S31517801DF0B4BF4E216E2115F0804F14BF5A227A2216
S31517801E0015F0005F14BF4323632315F0805F14BF5B
S31517801E10562076200090154824F093FA236C144A9E
S31517801E2022AC144813F0800F14BF1146014613F0E5
S31517801E30400F03F01F0308BF02460F4804EB8303C6
S31517801E400E4C009453F8803C24F07BFA22B070BD78
S31517801E5098988217D4DE8217CEDE8217F6DE82171F
S31517801E601ADF82173EDF82176EDF82179EDF821791
S31517801E705AF282177F8A8317AEDF821740968317A7
S31517801E8008B50446034824F05CFA2046FFF774FF2A
S31517801E90FFF76CFFCDDF821708B50446034824F099
S31517801EA050FA2046FFF768FFFFF760FFE4DF8217D7
S31517801EB008B50446034824F044FA2046FFF75CFF2A
S31517801EC0FFF754FFF8DF821708B50446034824F056
S31517801ED038FA2046FFF750FFFFF748FF08E08217CA
S31517801EE008B50446034824F02CFA2046FFF744FF2A
S31517801EF0FFF73CFF14E0821708B50446034824F021
S31517801F0020FA2046FFF738FFFFF730FF1EE08217CB
S31517801F1008B50446034824F014FA2046FFF72CFF29
S31517801F20FFF724FF23E0821708B508480DF08EF9CE
S31517801F304CF2503023F012FDFFF715FFFEF714FC15
S31517801F40002015F04BFE002008BD00BF21E1821747
S31517801F500144FEF7D0BA82B000230193019B632B0D
S31517801F6003DC0046019B0133F7E702B070477047E1
S31517801F70D9F8F03041EA005141F4406143F8201016
S31517801F807047F8B500F57F2303F6FF73050D1944DF
S31517801F90D9F8F0702E460C0DA64205D2304611465A
S31517801FA0FFF7E6FF0136F7E707EB840107EB8500B6
S31517801FB0BDE8F840FEF7B2BA10B5D9F8004004EB81
S31517801FC0C004A26C120DE36CA16C1B0D03EB1153AD
S31517801FD0934205D910461E21FFF7CAFF0132F2E751
S31517801FE010BD08B511EE102FFFF7B5FF42F48052DA
S31517801FF001EE102F08BD08B511EE103FFFF7ABFFA6
S3151780200011EE102FFFF7A7FF22F4805201EE102F43
S3151780201008BD11EE100FC0F30030704710B511EEE2
S31517802020102F12F001041FD1FEF754FA22461046DC
S315178020301221FFF79DFF0132B2F5805FF7D100209D
S31517802040FFF7BAFFD9F8F03002EE103F4FF0FF33A3
S3151780205003EE103FFFF78BFF11EE102FFFF77BFF75
S3151780206042F0010201EE102F11EE102FFFF773FFCA
S3151780207042F0040201EE102F10BD10B511EE102F8D
S31517802080FFF769FF530709D511EE104FFFF763FF67
S3151780209024F00504FEF70EFA01EE104F10BD11EE6F
S315178020A0100FC0F38000704708B501210648FFF767
S315178020B033F83C2015F0D8FD3C2015F0B9FD0030DB
S315178020C018BF012008BD00BF8897821708B5192148
S315178020D00648FFF721F801212A2015F0DBFD01219B
S315178020E02B20BDE8084015F0D5BD00BFF89582179F
S315178020F0FEF782BB10B50446006815F03DFE30B971
S31517802100207915F081FEB0FA80F0400910BD0020C5
S3151780211010BD10B54C46FFF7C1F86063002010BD9F
S3151780212008B50369094A1B68934205D002F5004230
S31517802130934208D1492000E0022015F079FDB0FAC4
S3151780214080F0400908BD002008BD00BF00001902B5
S3151780215070B50024144D0646012C4FF007010AD09E
S315178021601248FEF7D9FF0C20FEF7EAFC04232B72E0
S31517802170686049200AE00E48FEF7CEFF0A20FEF770
S31517802180DFFC042385F834302863022015F06CFDB4
S315178021902C21304601FB045116F024FB10B901346B
S315178021A0022CD9D170BD00BF9899831728988217AA
S315178021B0B897821710B5102104460B48FEF7ACFF67
S315178021C000215D2015F066FD0A2023F0D7FB01213B
S315178021D05D2015F013FD642023F0C0FB2046BDE873
S315178021E01040FFF7FBB800BFF894821708B5022195
S315178021F01248FEF791FFFEF7C3FEFEF71BFB104A48
S31517802200536B43F003035363FEF7FEF9C0F30730AE
S31517802210632803D10B4842F2500107E0FEF7F4F921
S31517802220C0F307306728F5D007485021FEF72AFFF5
S31517802230742015F019FD002008BD00BF98978217E6
S3151780224000400C026C014800AC003C00012070472E
S3151780225008B51048FFF738FBFEF7D6F9C0F30730F5
S31517802260632801D10C4906E0FEF7CEF9C0F3073093
S315178022706728F7D009490A480CF032FCFFF714FF94
S3151780228008B1084900E0084908480CF029FC0020E5
S3151780229008BD00BF3C9A82174DE182175CE1821711
S315178022A052E1821762E1821770E1821765E1821720
S315178022B008B50120D9F800300E4A0F495A647F2293
S315178022C00E4BFFF713F9FEF79FF9C0F30730632814
S315178022D001D10B4B06E0FEF797F9C0F30730672855
S315178022E0F7D0064B7F2204490120FFF7FFF800201D
S315178022F008BD00BF00010010A0860100F099831762
S315178023006899831708B5FFF7CFFE08B1034800E031
S3151780231003480CF09BFF002008BD00BF73E18217AE
S315178023208CE18217814670476FF49473F8221844AC
S31517802330002110B520F00F04204623F0D7F9204648
S31517802340FFF7F0FFA4F58060C9F8C00010BD70478D
S3151780235008B5AB20FFF7FBFF0EF046FD01F06EFACE
S3151780236001F086FABDE808400EF03ABD704708209E
S315178023707047000010B580204C460DF05DFA3D4938
S31517802380A066D9F868203C481160D9F868203B497F
S315178023905160D9F868203A499160D9F86820394947
S315178023A0D160D9F8682038491161D9F8682037493A
S315178023B05161D9F86810364A8A61D9F86810CA61A6
S315178023C0D9F868100862D9F8681032484862D9F87F
S315178023D0681031488862D9F868103048C862D9F8C9
S315178023E068102F480863D9F868102E484863D9F8BB
S315178023F068102D488863D9F868102C48C863D9F8AF
S3151780240068102B480864D9F868102A484864D9F8A0
S31517802410681029488864D9F868102848C864D9F894
S31517802420681027480865D9F8681026484865D9F886
S3151780243068108A65D9F86810CA65D9F868100A6667
S31517802440D9F868104A66D9F868108A66D9F8681074
S31517802450CA66D9F868201C491167D9F868201B49BC
S315178024605167D9F868201A49D9F868309167194A97
S31517802470DA6710BD6F23801739F8801789F28017AE
S31517802480BDF2801729F280174DF2801743638217A2
S315178024906D238017CDF680175D598217D958821705
S315178024A06F638217291F801779ED8017E1EA8017E6
S315178024B0FD6382176D648217AF648217B1558217D1
S315178024C05D7E8117297E8117C9648217A165821758
S315178024D0415582177D5982172DE9F041069E079D32
S315178024E0012E28DDCB0701D5022E24D010220021FC
S315178024F0286823F083FF102200210746686823F097
S315178025007DFF4FF48033394602460446002022F079
S31517802510F5FB3A19013A394603468046094823F0AE
S3151780252010FF022E0BD010220021A86823F066FF19
S31517802530C0F8008003E04FF0FF30BDE8F08100203F
S31517802540BDE8F081E7E182170268002343600361E3
S3151780255002B11370704703685A1C026018780028F6
S3151780256008BF4FF0FF307047036818787047000030
S31517802570034A013810F8013F0BB1D154FAE7704777
S31517802580602E8417014823F0DCBE00BF12E2821743
S315178025902DE9FF4D00264FF0180B04460191002CAC
S315178025A03DD00026019B37460333029323689F420B
S315178025B029DA0BFB07F8D4F804A00AEB08055AF8B2
S315178025C00810C1B10021A868814208DA28680391EA
S315178025D050F821000DF07AF803990131F3E75AF88C
S315178025E008000DF073F868680DF070F80021A9607F
S315178025F04AF8081005E0E86818B10299FFF7C8FF8E
S3151780260006460137D2E760680DF060F8A5680023A3
S3151780261020466360A3602C460DF058F8BFE7304616
S3151780262004B0BDE8F08D000008B50DF005F918B9AE
S31517802630024823F086FEFEE708BD00BF20E2821718
S3151780264008B51420FFF7F0FF00220260426082600F
S31517802650C260026108BD000008B50DF05BFB18B9B2
S31517802660024823F06EFEFEE708BD00BF20E2821700
S31517802670036870B50646856833B1DA680AB91B6888
S31517802680ABB12B6801332B6029681824686801FB66
S315178026900441FFF7E1FF2B6800225C43031968604A
S315178026A002515A60DA601A61B26933605A61002042
S315178026B070BD38B504460D46FFF7DAFFA368E268A2
S315178026C0DD6000251A61FFF7BBFFA3689860A060DD
S315178026D020462560FFF7CCFF284638BD43682DE98D
S315178026E0F04D07460C4623B9036913B90020BDE898
S315178026F0F08D2568EB6813B1FFF744FFCEE02E689F
S3151780270016B13B6801207DE0A3699B07F9D5DFF8F1
S3151780271094B156F80B100BEB060A386822F048FF6F
S315178027208046002862D1DAF8083018052AD51C2089
S31517802730FFF77AFFE3680C2B834601D0062B05D16A
S31517802740FFF720FF58460CF0C1FF25E026460546C1
S315178027500FCE0FC596E8070085E80700C4F80880EE
S31517802760C4F80080FFF76CFFC4F80C80C4F8148097
S31517802770C4F810806060A0602046FFF779FFC4F820
S3151780278014B00CE0E3682BB12369DAF804201341FF
S31517802790D90704D4FFF7F6FE0D23E3601CE0DAF8B9
S315178027A00430E360DAF80830DA07236114D501219B
S315178027B02046FFF77EFFD4F814E062682546DEF8D8
S315178027C000307646DA600FCE0FC596E8070085E8A3
S315178027D0070070460CF07AFF3846FFF7B5FEE068BB
S315178027E0A0F10D0358425841BDE8F08D0C36842E62
S315178027F08FD186E71A783AB15C2A00F1010008BFB3
S3151780280001330133002BF5D10DF016F880460028D9
S3151780281044D0286800B9A860AE68731C0236AB60CE
S31517802820B60031460DF076FA286028B131466868C9
S315178028300DF070FA686018B940460CF047FF2DE026
S315178028402A68A6F108033969043E42F803806A6844
S31517802850D15000232A6893516A6893513B6893B97C
S315178028600025384688F80050FFF76EFEE368062B7A
S315178028707FF43CAF21463846FFF730FF01212046CB
S31517802880FFF717FF32E71A78002AE9D05C2A08BFC4
S31517802890013313F8012B08F8012BE0E70120BDE877
S315178028A0F08D00BF249A8317012A2DE9F34D174619
S315178028B09B4602D0002401262FE01E4B1C68002C55
S315178028C034D094E806001C4823F03BFD0CF004FD39
S315178028D020B11A480CF0BAFC012028E02469EEE7EB
S315178028E04146286822F064FE38B9019095E80600BB
S315178028F0114823F026FD019B9A460CF0EDFC002823
S31517802900E7D12D69002DEBD1BAF1FF3F04D14146AE
S315178029100B4823F016FD01340136BE4206DA054B05
S315178029204FF0FF3A5BF826801D68EBE7204602B02A
S31517802930BDE8F08D642F84173EE2821745E2821731
S3151780294051E2821788B1094A0378D35C13F00303DF
S315178029500AD010F8013FD15C4907FAD15F2BF8D01E
S315178029603D3B5842584170471846704792BD82176B
S3151780297003682DE9F0410446002B76D136E022F024
S315178029803FFE002866D101236360A36800263C4D6D
S31517802990012B08BF3B48A84618BF3B480EF0A6FD3B
S315178029A00130284601BF00236360384A136022F03E
S315178029B027FE0A232B54284446700CF0EBFC08B1EB
S315178029C0324B1E600CF0ECFCA768314B0026012FAA
S315178029D01E6017D12A782D4D0A2A0BD12A687AB903
S315178029E027492C4822F0ACFD2A4B23602068002803
S315178029F0C5D1C8E72249274822F0A2FD2F60F3E701
S31517802A001F60F1E72B780A2B1BD0224D284622F020
S31517802A10F7FD07461A4822F0F3FD3844B0F5007FD4
S31517802A200AD2284622F0ECFD15492023284400F8BF
S31517802A30013C22F085FD04E00A232B70134B6E7040
S31517802A401E6062681AB9134B0A215A701970C4F836
S31517802A500080CBE720680223A36078B1037863B13F
S31517802A60431C23600078BDE8F0811A78002ABDD010
S31517802A705A1C02601878BDE8F0811846BDE8F081C7
S31517802A801491851748128317F5838317282C841773
S31517802A90602F84172C2C841770B50E46436804460E
S31517802AA081688B420CDB056801F1640365318360AD
S31517802AB028460DF02FF9206020B928460CF006FE1F
S31517802AC0206840B16368C654002063682268013362
S31517802AD06360D05470BD012070BD000038B50446C0
S31517802AE00D462AB929462046BDE83840FFF7D4BF98
S31517802AF0054822F079FD0028F4D05C212046FFF79F
S31517802B00CBFF0028EED038BD6DE2821703681878A0
S31517802B107047000038B5054608B9002038BD0378D8
S31517802B20242B0DD1437800200C4C3F2B207014D1C9
S31517802B300B4B20460B491A6823F0F6FB204638BD07
S31517802B40094B1C68002CE8D02946206822F030FDF6
S31517802B5008B9606838BD2469F4E738BD2D2E841707
S31517802B605C2E841772E28217642F84172DE9F04D35
S31517802B70884603783C4AD35C9B0723D022F064FDB2
S31517802B8007460CF0F9F8044618B1384823F0D9FBF4
S31517802B9006E03D21384622F027FD08B143781BB958
S31517802BA038460CF093FD0DE0314B00F1010A0470A5
S31517802BB01D681C4655B13946286822F0F9FC28B39A
S31517802BC02D69F7E74FF0FF30BDE8F08D14200CF034
S31517802BD033FE064628B3384622F036FD306018B9DC
S31517802BE030460CF073FD1CE05046D4F800B022F046
S31517802BF02BFD3561C6F80880F5607060DBF81040EC
S31517802C000CB1A346FAE7CBF810600CE0514668681A
S31517802C1022F0CEFC68B1EB689BB13946154823F094
S31517802C2090FB4FF0FF3438460CF050FD2046BDE838
S31517802C30F08DB8F1000F15DDAC689CB9C5F8088022
S31517802C40F1E7B8F1000F02DCAB68012B01DD012338
S31517802C50AB60686800240CF039FD504622F0F4FC0E
S31517802C606860E0E70124DEE792BD821775E2821776
S31517802C70642F8417B8E282172DE9FF4D0024054685
S31517802C800291A04626460321284622F0ADFC074628
S31517802C90002800F0B080BD420ED0C5EB070A20464B
S31517802CA006EB0A084146FFF7D7FC524629460446E3
S31517802CB0304422F04DFC4646013703214FF0000879
S31517802CC0384622F091FC019080F80080002F00F0A2
S31517802CD08A803A21384622F087FC824618B9002224
S31517802CE09046154612E0437880F800802D2B02D146
S31517802CF0851C42460AE03D2B04D14246851C4FF07F
S31517802D00010803E02B2BEAD1851C01223846039252
S31517802D100CF032F8039A834648B93846FFF7FAFE1D
S31517802D20039A834618B9B8F1000F28D006E058469B
S31517802D30039222F065FC0028F5D019E0384622F078
S31517802D405FFC8046284622F05BFC404402300CF03C
S31517802D5073FD804640B137492B463A4623F0E4FA4D
S31517802D6000214046FFF702FF40460CF0AFFC06E015
S31517802D70039A42B1584622F043FC0BEB0005BAF191
S31517802D80000F04D106E05D46BAF1000F03D03A234F
S31517802D908AF800303DB3029B284623B122F030FCD7
S31517802DA0B71C074402E022F02BFC37182046791C03
S31517802DB0FFF752FC029B044683B106F101082946A8
S31517802DC080444FF0040A404622F0BAFB04F806A066
S31517802DD0284622F015FC08F800A003E0294630445F
S31517802DE022F0AEFB3E46019D4FF003034FF00108DC
S31517802DF005F8013B47E7B8F1000F14D0284622F0B3
S31517802E00FFFB711C01442046FFF726FC2946044622
S31517802E10304422F095FB20260A21204622F0E4FB37
S31517802E2008B10670F8E7002C14BF2046284604B070
S31517802E30BDE8F08DCEE282172DE9F0410E4686B0B9
S31517802E400446002836D00378002B35D00A21DFF8C0
S31517802E50788022F0C9FB1A4F08B14378F3B1204620
S31517802E6022F0CEFB0230FFF7DFFB2146054622F024
S31517802E7067FB1449284622F077FB314601A80123C0
S31517802E80CDF81480029303930497019500F08AFA7C
S31517802E90044628460CF01AFC20460EE0314601A857
S31517802EA00123CDF81480049702930393019400F0BD
S31517802EB079FA02E0012000E0184606B0BDE8F081F5
S31517802EC0572580171FE382170D2B80172DE9F04D95
S31517802ED08EB006460346E3B11A699B680C2A01D061
S31517802EE0062AF8D12BB9FFF74DFB9D4B00221A60A6
S31517802EF045E20C2A07D11A690C2AECD15A6812684E
S31517802F00002AE8D0EFE7062AE5D11A690C2AE2D01B
S31517802F10E9E74FF00B0801271D469A469B46039310
S31517802F200493069305930B930A93002E00F0298238
S31517802F303369063B022B0DD80CF0CEF90CF02AFA22
S31517802F40002840F01C82039B0BB1059002E0824655
S31517802F50039605903469A04506D12FB1F76817F106
S31517802F60FF3718BF012703E2022C02D0042C0BD19E
S31517802F7004E0049B002B40F0F78103E0049B002BB1
S31517802F8000F0F2810693C3E0032C04D1069B002B35
S31517802F9040F0BE80F5E1062C40F0A4803368002B04
S31517802FA000F0E481BBF1000F7BD1B3685B681F68C3
S31517802FB0002F00F0DB8173681B681B6818460A931D
S31517802FC022F01EFB0B900420FFF72EFB3B1F099365
S31517802FD0002307938346099B53F8040F0993002808
S31517802FE053D00021FFF748FE074608903B78002B01
S31517802FF042D0202B01D10137F8E72021384622F01D
S31517803000F3FA034610B1C7EB000A04E0384622F0FC
S31517803010F7FA3B1882460C935846079B03F102082A
S315178030204FEA88084146A8F10808FFF715FB0B9B5E
S315178030308346981C5044FFF7F7FA0A994BF808000D
S3151780304022F07EFA47495BF8080022F08DFA52463D
S3151780305039465BF8080022F096FA079B5BF808203A
S31517803060013307930B9B1A444FF0000392448AF857
S3151780307001300C9B1F46B9E7099B089A1B689A4231
S31517803080A9D010460CF022FBA5E7079B4FF0010A43
S31517803090CDF82CB04BF8230073681B681A68186034
S315178030A00A927368DBF800801B681868B8F1000FFE
S315178030B00DD10CF00BFB0B980CF008FB73680A9A72
S315178030C00B240127C2461B68C3461A6050E108B114
S315178030D00CF0FCFA73680BF1040B5BF8042C1B6875
S315178030E01A6015E00C2C00F04181092C04D1BAF135
S315178030F0000F00F03B810BE00A2C09D1059BBAF132
S31517803100000F18BF01230593039B08BF0023039362
S315178031103368002B00F02A81012B40F00681D6F800
S315178031200480D8F80C0010B1FFF7D0FEF2E0D8F87B
S315178031300070002F00F0F980054657F825201046B5
S315178031400792FFF7FFFB079A08B10135F5E7064B9C
S315178031501B680793002D47D042B1054644E000BF50
S31517803160282C841783138317602F84171746D8F84C
S315178031700030D85900B322F067FA3D21054622F070
S3151780318033FA10B14FF00003037028460CF09EFAFD
S31517803190D8F800300021D859FFF76EFD0021054673
S315178031A0FFF7E4FCD8F80030DB599D4202D0284659
S315178031B00CF08CFA0437DAE70546B8E0002110469A
S315178031C0FFF75AFD00210746FFF7D0FCD8F80030E5
S315178031D05B59BB4207D0D8F810303846013BC8F840
S315178031E010300CF073FA0435D8F800305F195A5935
S315178031F010460892FFF7A6FB089A0028DED1D8F862
S31517803200101000296ED007906048D8F80480FFF711
S3151780321081FC38B10078079B302805D0031C18BF6E
S31517803220012301E0089000E0089345444FF0000819
S315178032303B1F0793474602230C93079B53F8042F8C
S315178032400793002A3BD008991046FFF715FD09907A
S3151780325022F0D6F929680C9B0D9503EB41010144A1
S315178032603846FFF7F9F90746B8F1000F03D04849F2
S3151780327022F07AF901E080F800802B681BB1454966
S31517803280384622F071F90999384622F06DF90D9B67
S3151780329004351B681BB13F49384622F065F9384615
S315178032A022F0AEF9099AC31C0C93079B1B689A42A6
S315178032B002D010460CF00AFA08F10108BDE7384625
S315178032C0079222F09DF9079A0A2305213B54384421
S315178032D042703846FFF7B0FD38460CF0F7F92E4B9B
S315178032E01D6818E03B21104622F07EF930B1D8F8D8
S315178032F000302A48595923F024F816E00090079889
S31517803300274B0030D8F80020D8F8081018BF0120AE
S315178033100EF092FB05466B1C09DA1F4A6FF0010304
S315178033205B1B6FF0010013602CE04FF0FF351A4AD4
S315178033302B1C18BF0123136024F00202012A0AD01E
S31517803340072C04D1B5FA85FA4FEA5A1A04E0082CE5
S3151780335008BF9A4600E00495F3680DB9032B00E081
S31517803360022B18BF0B2402E0049B06930B2401271C
S31517803370059B0BB9B66800E0039EA046D5E50120EC
S3151780338000E028460EB0BDE8F08D00BFD4E2821764
S31517803390A19483172BE882175C2E8417E1E2821794
S315178033A0282C84172DE9F04D90B0044614220091ED
S315178033B004A80021012622F099F9009B002513F015
S315178033C0080F14BF4FF0FF330A230193009B0B9509
S315178033D009950F93FFF734F90C950E950D95A54F13
S315178033E00A900B9009A8FFF743F9A3480BF0C4FC82
S315178033F008B1386001E0A14B3B604FF48072002121
S315178034009F4822F073F9032103A804238DF80D50E2
S315178034108DF80C30FFF7ACF803219A48FFF7A8F818
S3151780342001219948FFF7A4F802213868FFF7A0F819
S31517803430009B03F00603022B03D000219348FFF766
S3151780344097F80123A360E36820469847B0F1FF3FBA
S31517803450804600F03F818A4A12F808B06268002ACF
S3151780346000F03A81B8F10A0F04D0226920469047B6
S31517803470824601E04FF0000ABBF1000F05D00BF131
S31517803480FF32012A15D8079A12B1079A414659E091
S31517803490BBF1020F0DD109A904A8FFF71FF9002860
S315178034A040F01A81B8F10A0F03D1012109A8FFF755
S315178034B000F9019B984505D1079F1FB90C9A002AD9
S315178034C000F00E81BBF1020FBDD0B8F1260F00F0C8
S315178034D0C48012DCB8F1220F00F0B18006DCB8F197
S315178034E0040F40F0F48001230893EAE0B8F1230F24
S315178034F017D0B8F1240F38D0E9E0B8F13B0F00F0B8
S31517803500A68006DCB8F1270F40F0E18001230893E7
S315178035108EE0B8F15C0F19D0B8F17C0F00F0BA8045
S31517803520D5E0059B63B9079B53B92369204698470E
S31517803530471C88D00A2886D0E36820469847F4E740
S31517803540079A232104A8FFF7C9FA7CE7BAF1FF3F48
S3151780355000F0BD80079A414604A8FFF7BFFAE368D3
S3151780356020469847079A0146ECE7226920469047F6
S31517803570474BC2B207469A5C910714D0032104A819
S31517803580FFF78AFA099A136901331361236920466B
S3151780359098473F4AC3B20746D35C5A0740F0DA804A
S315178035A05F2834D1D6E03F280DD07B2834D103212C
S315178035B004A8FFF771FA099A204613690133136134
S315178035C0E36898471CE0099904A80A6901320A61D9
S315178035D00321FFF761FA414604A8FFF75DFA3946DA
S315178035E004A8FFF759FA032104A8FFF755FAE368E9
S315178035F02046984727E77D2809D004A8FFF74CFA75
S31517803600E36820469847431C0146F4D15FE00321BF
S3151780361004A8FFF741FA16E7079A242192E7272885
S315178036203FF411AF6368002B56D004A8FFF734FA1E
S31517803630E36820469847471C0146F0D147E00123A7
S315178036400893079BB3FA83F35B090793FBE609A9EC
S3151780365004A8FFF743F8012127E009A904A8FFF773
S315178036603DF8BAF1260F32D1E368204698470221F2
S315178036701BE000BF582E841719E382171DE38217A4
S31517803680602E841721E3821726E382172BE382178E
S3151780369092BD821709A904A8FFF720F8BAF17C0F03
S315178036A015D1E36820469847032109A8FFF701F843
S315178036B0C9E604293FF4C7AE63686BB104A8FFF760
S315178036C0EBF9E3682046984701460130F1D1FEF7BA
S315178036D059FF01E0074603E03C4B01271D600AE0CE
S315178036E00D9B1BB1FEF74EFF384B1D60DDF834A0DE
S315178036F0BAF1000F36D00D9B2BB10E980BF0E6FF63
S3151780370004A8FEF721FF636813B9314822F019FE22
S3151780371001232560636000210A9808950795FEF7AF
S3151780372037FF04A8FEF710FF04980BF0CFFF049518
S315178037300695013744D0009BDB0741D42269254B78
S315178037409A427FF443AE2046FFF7E0F900287FF4CC
S315178037503DAE35E0E36820469847394604A8FFF71B
S315178037609BF913E709A904A8FEF7B8FF012109A851
S31517803770FEF79FFFDDF828B05846FFF7A7FB51469F
S3151780378006465846FEF704FFB11C12D104A8FEF769
S31517803790DBFE04980BF09AFF22690F4BCDF810A029
S315178037A09A42CDF818A00AD10C48564622F0C9FD80
S315178037B0BFE7721CB5D1054BC3F800A0B1E75646D3
S315178037C0301C18BF012010B0BDE8F08D282C841747
S315178037D059E382170D2B80176925801730E38217D7
S315178037E07FB506A8074B02210593074B0493012340
S315178037F002930393002340F8143DFFF7D3FD07B0D8
S315178038005DF804FB692580177129801738B5084D2F
S315178038102C685CB914200CF00FF8064B0360064B26
S3151780382028600461436001238460C360002038BD2B
S31517803830642F841766E3821773E3821710B50948D6
S315178038400BF09AFA28B10A22002122F030FE04469C
S3151780385000E0022404480BF08FFA4B46DB6D034BCE
S315178038601C6010BD36E4821740E48217682F8417D0
S31517803870F8B506461C4B1C68631C33D090B3002CD6
S3151780388003DB2146194822F05CFD0025002C1DDD3F
S31517803890DDB9284622F020F807460BF00FFD20B138
S315178038A00BF0F2FC012500240AE042F2107022F098
S315178038B055F8384622F010F8B0F57A7FEDD3013CEB
S315178038C021460B4822F03DFDE0E701250A200BF043
S315178038D0ABFC3DB92A4630464FF0FF31BDE8F8407C
S315178038E00DF033BAF8BD00BF682F841748E48217E6
S315178038F06BE4821703490020034B5B1AC9F83830EB
S31517803900704700BF00008017D0D68817D9F8303097
S31517803910002023F47F6323F00F03C9F830307047F4
S315178039204FF48042C9F8F420D9F8F4100020D9F85A
S315178039303020521AC9F83020D9F83020120C1204C8
S31517803940C9F83020D9F83020C9F8F0207047D9F84F
S3151780395038100020D9F83020521AC9F83020D9F8F3
S31517803960302022F47F6222F00F02C9F83020D9F86E
S315178039703020C9F840207047D9F840300020A3F589
S315178039802003C9F840307047D9F8003041F23C120D
S3151780399000201A647047D9F840200020F83AC9F8F1
S315178039A04020D9F84020C9F848207047D9F85C20BC
S315178039B0BAB1D9F85C20526812BA02F580521F3212
S315178039C022F01F02C9F86420D9F86410D9F840206C
S315178039D0521AC9F84020D9F84020D9F86410C9F886
S315178039E06020002070470020704700207047000035
S315178039F008B502480BF02AFC002008BD73E482172D
S31517803A0008B505480BF022FC14F0F6F903480BF0BD
S31517803A101DFC002008BD00BF7BE482174C768317F8
S31517803A2010B54FF4E1320A2103484C460BF0DDF905
S31517803A30A060002010BD00BF83E4821708B5A320BD
S31517803A40FEF785FC002008BD012010F03DB808B5AB
S31517803A504946D9F804301B050AD4D9F83030F822EC
S31517803A60A3F1BC53C9F84430D9F8480021F061FE58
S31517803A70002008BDD9F8042008B512050ED4D9F848
S31517803A8060205AB1D9F86000D9F85C10D9F864204B
S31517803A9021F04FFED9F86020C9F85C20002008BDB8
S31517803AA0D9F8001008B569B9D9F84020503AC9F83D
S31517803AB04020D9F84020C9F800205022D9F80000B4
S31517803AC021F014FE002008BD0020704700207047A3
S31517803AD00020704700207047704770477047000076
S31517803AE0D9F8003010B50024D86C064A214620F044
S31517803AF0BFFF2046FFF7F2FF0A200BF095FB204603
S31517803B0010BD00BF40968317D9F800204FF080511B
S31517803B1010B59164D9F800400CF0D4FFE06410BD5D
S31517803B2008B5FFF7F1FF002008BDD9F82C20B2F1B0
S31517803B30805F2CBFD9F82C0000207047704710B5CE
S31517803B404C46D9F83400FFF7F9FF4FF0805260637F
S31517803B50C9F82C200CF0B6FFD9F82C304C461844EF
S31517803B60C9F82C00D9F83800FFF7DFFFE06200208C
S31517803B70D9F82C20C9F8302010BDD9F84020103A32
S31517803B80C9F84020D9F8402022F00F02C9F8402002
S31517803B90FEF7D2B808B50022C9F80400C9F8202064
S31517803BA0034820F0BFF808B121F0EAF808BD00BF36
S31517803BB0A89A831700207047D9F80430002043F459
S31517803BC0007343F00103C9F804307047034A002095
S31517803BD0034B9B1A034A1360704700BF0000801778
S31517803BE07CB284176C2F841700207047002070478B
S31517803BF008B5FEF7ADFBFCE708B503480BF026FBC7
S31517803C0023F056FC002008BD8CE48217D9F80010E3
S31517803C1008B53031024823F07DFA002008BD00BF71
S31517803C205C06831708B5FEF79DF8002008BD08B512
S31517803C30FEF7A0FB002008BD10B50BF049FA10213E
S31517803C40034C044822680BF0D0F82060002010BD82
S31517803C50F8B7831794E4821708B504480BF0F6FA79
S31517803C60D9F8000015F092FF002008BD9DE4821751
S31517803C7008B517F071F9002008BD08B5A420FEF71E
S31517803C8066FB002008BDD9F84C200020C9F85020C3
S31517803C90C9F84C000FF018BFD9F830004FF420013F
S31517803CA008B5A0F520000BF0BDFC002008BD08B5AF
S31517803CB0FDF762FC002008BD002070470020704782
S31517803CC000207047704708B5FFF7FCFF002008BD36
S31517803CD008B5024820F026F821F052F8489B83173A
S31517803CE0FEF710BB0346084611461847012A70B5DA
S31517803CF0164618DD1C46102254F8040F002122F0B0
S31517803D007DFB054601460A4822F01BFB2246711E9B
S31517803D102846FFF7E7FF041C0146064818BF01240B
S31517803D2022F00FFB01E04FF0FF34204670BD00BF35
S31517803D30A5E48217CDE482172DE9F04502F1FF3805
S31517803D40B8F1000F87B006460F4615461C4603F195
S31517803D50040A2CDD1022586805A922F04FFB059B13
S31517803D601A7822B33A2A22D0232A20D00922184930
S31517803D7060680DF0C3FBAA1E04F10803A0B1C168E1
S31517803D801448012908BF072111F0010F07D1D0F870
S31517803D908C40A14203DC104822F0D3FA04E00024B9
S31517803DA00190029400910BE04FF0FF300CE0012355
S31517803DB00293084B4246019340F20F730093534682
S31517803DC03946304600F0A0F907B0BDE8F08500BF48
S31517803DD0409F8317702F84178BE5821710B50C4673
S31517803DE003480AF0C9FF2146BDE810400CF0A6BF6C
S31517803DF040E4821738B501460446184822F0A1FADE
S31517803E0020460CF0FDFA0128054621D114480BF0FF
S31517803E101DFA2268134B9A4201D0134804E02046B4
S31517803E200CF078F918B911480BF010FA14E02046FF
S31517803E300CF058FA0E480BF009FA20460CF07FF969
S31517803E4008B90C48F0E70C4800250BF0FFF903E09A
S31517803E500A4801250BF0FAF9284638BDB5E58217C9
S31517803E60D6E5821727051956EDE5821702E68217DA
S31517803E701AE6821735E6821746E682174AE68217CA
S31517803E80012AF8B516461F4605DC0C4B1868BDE89F
S31517803E90F840FFF7AFBF002501241022002157F8FD
S31517803EA02400013422F0AAFAFFF7A4FF002818BFCE
S31517803EB00125A642F1D12846F8BD00BFF8B783176A
S31517803EC073B505460D480E460AF056FF08B9002009
S31517803ED012E00B4921F06CFB04460028F7D1094BF9
S31517803EE0019009481968009622F02BFA6B46012231
S31517803EF021462846FFF720FF02B070BD61E682177C
S31517803F006BE68217F8B783176FE682172DE9F045A8
S31517803F10561E224C87B01F1D1D463246012302931B
S31517803F2082468DE818003B46884600F0EDF81EB9A4
S31517803F301B4B1B68236605E010220021686822F058
S31517803F405DFA206605AA04A9206E144DFDF760FE5A
S31517803F50F8B9049B05F19000059A296ED21A1FF0BD
S31517803F60CFFF3A463146404600F01CF888B900F034
S31517803F70C3F805230194324684F85E3041460123FF
S31517803F80504602934FF4E06300933B4600F0BCF82B
S31517803F9000E0012007B0BDE8F08500BF702F8417B9
S31517803FA0F8B78317F0B585B0164C0D4616460746F3
S31517803FB004F1680331460193224604F164032846C7
S31517803FC0009302230CF030FA08B10F480FE004F182
S31517803FD0700329460293324604F16C0300940193C9
S31517803FE0384602230CF040FC054620B107480BF0F3
S31517803FF02DF9012003E0E06E01F034FE284605B066
S31517804000F0BD00BF702F84177BE88217A0E8821750
S315178040102DE9F0410546DDF82880D8B216460C46BC
S31517804020099FC8F800100CF049F9024655B9294B73
S3151780403029492A48B44218BF194622F082F9B44250
S3151780404007D13CE00146264822F07BF9012D0AD09C
S3151780405012E0089ABA4217D84FF480330799069810
S315178040600CF0ECF82BE008AB079A394606981FF048
S315178040701FFE064618B308E029461A4822F061F94A
S315178040806FF00200BDE8F0810126E8B2089C0CF0BB
S315178040901FF9A742014603D8134822F052F903E0C5
S315178040A03246124822F04DF9114822F04AF96FF03C
S315178040B00500FEF74CF94FF0FF30BDE8F081089BFD
S315178040C00C481C44C8F800400BF0C0F80020BDE827
S315178040D0F08100BFC8E88217C4E88217D0E8821734
S315178040E0DEE88217F7E882171AE982174AE98217F4
S315178040F063E9821746E6821710B5FDF734FE044644
S3151780410008F092F9204610BD2DE9F04D8EB09846ED
S315178041101746179D169E0991D5F88C30F10707908B
S3151780412043EA0603C5F88C3028D5C04C4FF49872ED
S315178041300021204621F0DAFABD480AF0CFFEC4F8EE
S31517804140880004F190001FF088FE0CF039F882463B
S315178041500CF046F85146024604F190001FF088FE8F
S3151780416004F19000FDF7A8FC04F190001FF03DFFC5
S31517804170A920FEF7ECF80123C4F88C30B20740F17A
S31517804180F98000200DAA87420CA90C904FF0000BDE
S315178041900D90C8BFD8F800000CF01CF9DFF88CA278
S315178041A004460120FEF7D3F820460CF039F9CAF8F1
S315178041B054B0CAF850B004460CF022F901287CD1C5
S315178041C021469C4822F0BDF822689B4B9A4205D01F
S315178041D09A480BF03BF84FF0FF3032E00220DAF8BE
S315178041E088B0FEF7B4F820460BF094FF28B99448A8
S315178041F00BF02CF86FF0010023E00320FEF7A7F8E9
S3151780420020460CF06FF8BBF1000F0FD08D480BF0DE
S315178042101DF820460BF093FF28B98B4822F091F8AA
S315178042206FF002000DE089480BF010F80420FEF7B6
S315178042308EF8617F022907D0854822F082F86FF0C1
S315178042400300FEF784F893E0002C00F09180052098
S31517804250FEF77DF8A37F022B0ED001D8012B02E043
S31517804260042B02D00E2B07D00FE07A4B0021204665
S315178042701A1F0BF07EFF10E004F14003CAF8503086
S31517804280E3681BBACAF8543007E0079B7248196867
S3151780429022F057F86FF00400D3E7DFF8DCB140223D
S315178042A02146584621F082FA062001234BF8044C02
S315178042B0CAF84430FEF74BF809E0079B5C46674817
S315178042C0196822F03EF86FF06F00FEF740F8DAF8BB
S315178042D05430DFF858B10BB961482EE020460CF000
S315178042E08FF8012819D1A37F04F140028BF85D302E
S315178042F0E37F8BF85C30237F8BF85E30E3681BBADD
S315178043001344CBF84C3023691BBACBF85830637FEC
S31517804310032B8BF85F3002D103E052480DE0182B40
S315178043200ED1514A0DAB0321A2F160000CF0AEF904
S31517804330002810DA02300ED04C480AF087FF6FE05B
S31517804340DBF844302BB1DBF818301BBACBF860306A
S3151780435001E04748F1E79AF85D20344B0E2A04D1DD
S315178043601A6D196E9A650A441A66CAF8484001E0AA
S315178043700024ACE772071CD52C4A92F85D100E29DB
S3151780438000F2138144F21403CB4003F0010383F048
S315178043900101002B00F0098192F85E30052B41D17F
S315178043A0424639460998FFF7FDFD002840F02681D9
S315178043B0074616F0080A61D1F00600F1B280B306F7
S315178043C00FD505F19004E96E20460CF09DF905F19D
S315178043D0700205F16C0120460CF0C0F9002840F0F8
S315178043E00D8195F85E0000F091FA0446002840F09A
S315178043F0AF8016F4F86F00F0AB80BAF1000F01D0DA
S31517804400FDF7B0FC95F85E000BF044FF95F85E203B
S315178044100146184821F095FF6FF00700FDF797FFC3
S315178044200120EBE00E2B40F0C280B9E7702F84177E
S3151780443080E9821787E9821727051956F0E58217CB
S3151780444005E682171AE6821738E6821746E6821736
S31517804450B9E98217C42F8417D8E98217F9E9821721
S315178044601CEA82173CEA8217D02F84175FEA8217D5
S3151780447089EA821746EB8217742F8417FFF73CFE5B
S31517804480AB6CD5F858B00DAA0A93EB6C59460B93BB
S315178044902B6D069395F85C30089395F85D300492EA
S315178044A04FF4000203926A6DCDF800B00292069A15
S315178044B0019282460898FFF7ABFD044630B16FF03C
S315178044C00500FDF744FFA31C54D175E70D9958468F
S315178044D0CBEB01018900FDF73BFD0720FDF737FF81
S315178044E0089B0D9A13B9069B5B4562D00B9B5B4560
S315178044F05FD90A9B93425CD26B6C43B195F8223095
S31517804500042B7FF459AF3F480AF0A0FE54E73E4884
S315178045104FF0FF340AF09AFE6FF07300FDF717FF1E
S3151780452028E0696E05F17803AA6E05F1900000936D
S3151780453005F17403521A0CF045F800285ED1696F9D
S3151780454032480AF0F7FAA96F31480AF0F3FA36E7D4
S31517804550710635D432063BD4F30542D416F48060FF
S315178045600CD000942B464FF480624146384600F0B3
S31517804570B0F90446BAF1000F06D003E0BAF1000F7E
S315178045803CD00446FDF7EEFBE01C04D16FF0060025
S31517804590FDF7DDFE07E0611C05D143463A460999CA
S315178045A00798FDF7C1FC204628E0002701E70F464C
S315178045B0FFE6A96D05F19000521A1FF0A1FCFBE6E4
S315178045C02B46424639464020A047834690B9C1E7D5
S315178045D02B46424639468020A04783460028BBD0C3
S315178045E008E02B46424639464FF48070A0478346EB
S315178045F00028B3D007480AF029FE58460EB0BDE802
S31517804600F08D00BFADEA8217E7EA82172EEB821785
S315178046103BEB821774EB82172DE9F041161F0025A5
S3151780462004460F469846BD420FDA002DC4BF84F85C
S315178046300080013456F8041F0135204620F080FF8C
S31517804640306820F0DDFF0444EDE7BDE8F081000017
S31517804650B0F5806F10B50CD11C6E0748214621F036
S3151780466070FE0F20FDF773FED9F80000A0470120D2
S3151780467010BD002010BD00BF8EEB8217B0F5806F7E
S31517804680F8B50C4617461D4623D113480AF074FB16
S31517804690A0B11022002121F0B1FE002C064605DDBF
S315178046A00A233A462146FFF7B7FF07E00B480AF079
S315178046B063FB014610B1304620F042FF2C6E084846
S315178046C0214621F03EFE0F20FDF741FEA04701202F
S315178046D0F8BD0020F8BD00BFC7EB82179EF682177C
S315178046E0D0EB821770B50D460A4816461C460AF057
S315178046F043FB40B1084920F05BFF20B9616D07483D
S315178047000AF018FA03E0236E3146284698470020A8
S3151780471070BD00BF61E682170AEC82170DEC82170F
S31517804720B0F5806F30B5154687B010D102AC1A6ECA
S315178047300849204621F0F8FD2B68002102228DE8D2
S31517804740180008466B4600F097FF012000E000200E
S3151780475007B030BD16EC8217B0F5806F2DE9F74597
S31517804760884692461F463FD193F82230042B01D0B4
S31517804770002609E03E6801AB6A46012130460BF0F8
S31517804780F8FC019B002BF3D0B8F1000F15DD002440
S3151780479025465AF82500013520F032FFA84500F145
S315178047A001000444F5D120460BF046F820235246E3
S315178047B041460446FFF730FF06E00D480AF0DCFA5B
S315178047C00C4C002818BF04463D6E0B48294621F02D
S315178047D0B8FD0F20FDF7BBFD2346064A3146D9F8AB
S315178047E00000A847012000E0002003B0BDE8F0854F
S315178047F09EF68217409683171AEC82177FB5044662
S31517804800036F00F16C06C16E00F1900503930029C2
S3151780481032D028460BF078FF284603AA31460BF08C
S315178048209DFF0546002838D1E06E02F0D3F81C4A62
S315178048302946E06E1FF0BEF8031E01DA023313D144
S3151780484018480AF099FA0646B0B1E56E20F0D8FEF8
S315178048500123144A01931449184433460090284675
S3151780486001F0C0FE002807DA1FF044F90F49024607
S315178048700F4821F066FD10E02046FDF7E5F90F2079
S31517804880FDF765FDE26E216E0A4821F05AFD204636
S31517804890FDF7F2F908480AF0D9FC04B070BD00BFDD
S315178048A064EC82179EF6821763EC82170ABD82170D
S315178048B06BEC82177EEC8217BAEC8217B0F5806F95
S315178048C008B504D11846FFF799FF012008BD0020C7
S315178048D008BDF8B506460F4614461D46FCF790FDEB
S315178048E02B4631463A462046069EB04795F85D30A8
S315178048F0012B09D0B4F5007F06D06FF00800FDF7BD
S3151780490026FD4FF0FF30F8BD0020F8BD014B53F858
S3151780491020007047549A821737B5074D074C8DE894
S315178049200C000B46641B064902462846A4106143B1
S315178049300CF042FE03B030BD102184175C2A841711
S31517804940B76DDBB608B50649064821F0FAFC064866
S315178049500AF07CFC05480AF079FC002008BD00BFE8
S315178049600099831769ED82176EED8217A6ED821768
S315178049702DE9F04DADF5067D00AF05460E4614467A
S3151780498020F03EFE2C492A460A3020F00700ADEB70
S31517804990000D6846E84621F0C7FC6946381D20F0A9
S315178049A05BFD00283DD0D7F80C326D46D4F800A0B1
S315178049B0DB0018335046ADEB030D20F021FE514630
S315178049C06B460246381D20F08FFD18B360680AF0D3
S315178049D07DFE404620F014FE01300AF02DFF606000
S315178049E0D8B1414620F0ACFDA0680AF06FFE30467C
S315178049F020F006FE01300AF01FFF8046A06018B12E
S31517804A00314620F09DFD05E060680AF05FFEC4F828
S31517804A10048002E00020AD4609E06FF00B00AD463A
S31517804A2005E0D7F81412054821F08BFC162007F5F8
S31517804A300677BD46BDE8F08DF5ED8217FAED82173C
S31517804A402DE9F84588469246054638B32C212846DF
S31517804A5020F0CAFD064690B9284620F0D1FD0446B7
S31517804A60002842D001300AF0E7FE074618B96FF0E2
S31517804A700B00BDE8F885294620F062FD11E0441B3E
S31517804A8038D0601C0AF0D8FE07460028EFD0224699
S31517804A90294620F05DFD00233B5502E00120BDE845
S31517804AA0F8853A21384620F09FFD044628B1002321
S31517804AB0601C237020F07CF90446384620F078F97C
S31517804AC0054620F09DFD38B1214652462846C047F7
S31517804AD0044608B1384608E03846751C0AF0F6FDD4
S31517804AE0002EB3D13046BDE8F8850AF0EFFD204693
S31517804AF0BDE8F8852046751C0AF0E8FDA6E7000094
S31517804B0030B5154685B0BAB1B0B1019101AA0F4932
S31517804B10002302930393FFF793FF044678B9029B0A
S31517804B207BB10399284620F00BFD03980AF0CEFD3A
S31517804B3002980AF0CBFD02E06FF0150003E02046DD
S31517804B4001E06FF0010005B030BD00BF71498017D5
S31517804B5000238360184670472DE9F84580460B4E2B
S31517804B600B4CA41BE41068B10025B24606E05AF830
S31517804B703510404620F01CFD28B10135A54206EBBD
S31517804B80C507F4DB00273846BDE8F885A02A8417C1
S31517804B90082B841738B50D46084C094909481FF064
S31517804BA043FF214600220848FFF74AFF0022214685
S31517804BB02846FFF745FF002038BD00BFCD4B80172D
S31517804BC0514B8017D8B3831715EE821710B58AB055
S31517804BD0114A002307930C460893039300930AAB55
S31517804BE0029205AA0690019213E90F001FF096FB11
S31517804BF0059B73B10CB9002209E0204620F000FD11
S31517804C000028F8D02046FFF7A7FF10B14268059B0A
S31517804C109A6000200AB010BDD8B383172DE9F041EA
S31517804C200024DFF86C80C0B006680546FC22214652
S31517804C3001A8009420F05AFDD8F80030114F2BB1F7
S31517804C4011480AF099F8C8F800403860386830B9C2
S31517804C506A4631460D48FFF753FF80B905E06A4625
S31517804C603146FFF74DFF0028F2D1684620F0C8FC81
S31517804C7028B16846FFF770FF08B14368AB6040B04C
S31517804C80BDE8F081A030841709EF821715EE8217D9
S31517804C9044A2831730B538B10C78302C04D14C78B0
S31517804CA004F0DF04582C12D00A4C0B44994205D0D5
S31517804CB00D78655D20B115F0440F04D12AB930BD42
S31517804CC015F0040FF9E70131F0E7116030BD0231B5
S31517804CD0EAE700BF92BD82170023C3601846704764
S31517804CE038B50D46084C094909481FF09DFE2146DF
S31517804CF000220848FFF7A4FE002221462846FFF720
S31517804D009FFE002038BD00BF814D8017D94C801774
S31517804D10D8B3831714EF821770B5054620F070FC49
S31517804D2068B1074E2978304620F05EFC044608B1F4
S31517804D30801B70BD2978034821F003FB204670BD80
S31517804D408ED9821764EF821770B5054620F058FC06
S31517804D5001280ED9084E6978304620F045FC04465E
S31517804D6008B1801B70BD6978044821F0EAFA20469D
S31517804D7070BD002070BD00BF89D9821798EF821742
S31517804D8070B58AB0164A002307930C460893039387
S31517804D9000930AAB029205AA0690019213E90F00B7
S31517804DA01FF0BCFA059BBBB11CB9059B0022DA60C4
S31517804DB012E0204620F024FC0028F6D02046059ED7
S31517804DC0FFF7AAFF00F007052046FFF7BDFF054B43
S31517804DD053F820301D43F56000200AB070BD00BF20
S31517804DE0D8B3831774A0821737B5002504460223D4
S31517804DF001AA21460120FFF74DFF019BA34217D039
S31517804E00A21C934207D12278302A04D1627802F005
S31517804E10DF02582A0CD0052D1A7802D03A2A01D0EB
S31517804E2006E02AB901355C1C062DE0D1002001E089
S31517804E304FF0FF3003B030BD1D4B2DE9F3410024F1
S31517804E401B780546DFF87C8006688DF80430D8F81D
S31517804E5000308DF805408DF80640164F2BB1164851
S31517804E6009F08AFFC8F800403860386830B901AA57
S31517804E7031461248FFF744FEB8B905E001AA314614
S31517804E80FFF73EFE0028F2D101A820F0B9FB60B1EA
S31517804E9001A8FFF741FF00F0070401A8FFF754FFA9
S31517804EA0074B53F820301C43EC6002B0BDE8F08105
S31517804EB0E2BA8217A4308417D5EF821714EF8217B8
S31517804EC074A0821748A283172DE9FF4D06460C4614
S31517804ED00193174612B1D0F804A000E09246634BAF
S31517804EE03568002C08BF1C46012F00F08180F368B7
S31517804EF003F007030093013B052B79D8DFE803F00E
S31517804F00030E2B4460694FF0FF3303AA2146002016
S31517804F10FFF7C0FE039B93F800802DE04FF0FF3319
S31517804F2003AA21460120FFF7B5FE039B1A78002AAC
S31517804F304FD1A21C93425BD12378302B58D194F84A
S31517804F40018008F0DF08B8F1580F4FF0FF3818BF07
S31517804F504FF0000840E0237803F0DF02592A09D082
S31517804F60542A07D0A3F13002012A03D903F0D703B5
S31517804F70462B2ED194F8018018F1000818BF4FF0F0
S31517804F800108C8F1000827E04FF00008A34603235D
S31517804F9003AA59460020FFF77DFE039B5B4518D071
S31517804FA0B8F1030F1A7802D02E2A01D011E082B9F0
S31517804FB008F1010803F1010BB8F1040FE7D117E0E7
S31517804FC02046FFF711FF003018BF0120C0F10008F7
S31517804FD002E04FF0FF3802E0B8F1FF3F08D1009AA0
S31517804FE02946234B23489B5C224621F0AAF938E0B1
S31517804FF0019B13F0020802D04FF0000831E0012F11
S3151780500003D025D3022F09D02BE0F3681807F3D5E1
S315178050102946194821F095F9B84622E0F36899068A
S3151780502013D45A06E8D52846104C09F06CFF51461A
S31517805030002818BF04461148224621F082F92146D6
S31517805040504620F0B5FA0028D6D029460C4804E0F9
S31517805050F368DB06D0D50B48294621F072F94FF055
S315178050600108404604B0BDE8F08D00BF409683170F
S315178050708ED98217DCEF82171CF0821759F08217A8
S3151780508039F0821771F082174FF4C023002013600E
S3151780509070470000034A0020C9F824200122C9F866
S315178050A0282070479CBE82172DE9F045ADF5005D27
S315178050B08BB0002013F030FD064600283BD014F045
S315178050C0C1FC002839D10DF1270525F01F05284683
S315178050D009F0CCFF014660BB01AA3046FFF7D4FF23
S315178050E0044670BB02461C491C4821F02AF9D6F89B
S315178050F06C8008F5FF50C8F1000A1F30414600EA58
S315178051000A0024F0A2E84146074601984044013830
S3151780511000EA0A0024F098E8D6F830612B463A461A
S3151780512001462046B04787420DD00D480AF08EF8C3
S3151780513007E00C460AE00B4900E00B490B4821F0C3
S3151780514000F9012402E00A480AF080F820460DF596
S31517805150005D0BB0BDE8F08540968317B2F08217D5
S31517805160817883179FF082178EF08217206B8317AB
S31517805170D79483172DE9F045ADF5005D8BB00020E8
S3151780518013F0CAFC054638B114F05CFC044628B106
S315178051901E4809F0CDFE33E01D48FAE7014601AAFD
S315178051A02846FFF771FF064640BBD5F868800DF194
S315178051B0270424F01F0408F5FF50C8F1000A1F3092
S315178051C0414600EA0A0024F040E84146074601981E
S315178051D04044013800EA0A0024F036E8D5F82C5105
S315178051E023463A4601463046A847874201D00948A2
S315178051F0CFE70121204609F0EFFE01E02046C8E7F8
S315178052000DF5005D0BB0BDE8F08500BF8EF08217F7
S315178052109FF08217CBF0821738B504461A4809F0E3
S315178052205DFE054620460BF0EBF8012823D1226850
S31517805230164B9A4201D016481EE020460AF06AFF9E
S3151780524008B9144818E02DB120460AF078FF08B936
S31517805250114811E0A37F062B01D010480CE0216C72
S3151780526004F1400009BA09B90D4805E050F8042B36
S31517805270002AFBD104E00B4809F0E8FF012038BD6E
S31517805280BDE838400BF061BD80E9821727051956AE
S31517805290D8F08217EAF08217FAF0821708F1821788
S315178052A018F1821726F18217012A10B506DD10220A
S315178052B00021586821F0A2F8044601E04FF0905477
S315178052C02146044821F03DF820460021BDE81040CC
S315178052D0FFF7A2BF4FF182170A460146014821F010
S315178052E030B800BF8BF1821730B585B0D9F800403A
S315178052F03448216CFFF7F0FF616C3348FFF7ECFFFA
S3151780530000213248FFF7E8FFA16C3148FFF7E4FF29
S31517805310E16C30480024FFF7DFFF204621F066FF57
S315178053200546E0B1024621462B4821F00AF82CB1F2
S3151780533022462A4901A820F0F7FF03E0284901A849
S3151780534020F0FEF801A8013409F016FD254A01A9B7
S31517805350002818BF0246244820F0F3FFDDE722F025
S3151780536047F80146214820F0ECFF214809F004FD53
S315178053700146204820F0E5FF1F48D9F8081020F08D
S31517805380E0FF1E48D9F8F010FFF7A6FF1C48D9F89A
S315178053903010FFF7A1FF1B48D9F84410FFF79CFF81
S315178053A01948D9F83C10FFF797FF1848D9F84010D5
S315178053B0FFF792FF1648D9F81C10FFF78DFF28467E
S315178053C005B030BDA5F18217B1F18217BDF18217ED
S315178053D0C7F18217D0F18217D8F18217EBF18217AE
S315178053E05C0683179BF18217F5F1821700F28217F5
S315178053F012F2821719F282172BF2821741F282174D
S315178054004AF2821754F282175EF2821765F2821772
S315178054106FF2821710B504460A4920F0C9F868B1A9
S315178054200949204620F0C4F850B10849204620F093
S31517805430BFF8003018BF0120404210BD022010BDB2
S31517805440012010BD9BF282177F8A83175AF2821723
S31517805450012A10B513D0022A1CD15868FFF7DAFF34
S315178054600128044605D0022806D0B0B9FCF7C3FD3B
S3151780547014E0FCF7B6FD10E0FBF712F80DE0FCF729
S31517805480C8FD074B0749002808BF1946064820F06C
S3151780549058FF02E04FF0FF3400E00024204610BD8D
S315178054A0D4F28217548B8317D8F28217012A10B534
S315178054B013D0022A1CD15868FFF7ACFF012804467F
S315178054C005D0022806D0B0B9FCF7D7FD14E0FCF753
S315178054D0A5FD10E0FAF7EEFF0DE0FCF7E0FD074BB0
S315178054E00749002808BF1946064820F02AFF02E018
S315178054F04FF0FF3400E00024204610BDD4F2821707
S31517805500548B83171FF382172DE9F7450BF0ECFAA7
