S00E0000752D626F6F742E73726563C0
S31517800000B80000EA14F09FE514F09FE514F09FE519
S3151780001014F09FE514F09FE514F09FE514F09FE523
S3151780002060008017C0008017200180178001801715
S31517800030E001801740028017A0028017EFBEADDE61
S31517800040DEC0AD0B00F020E300F020E300F020E3E4
S3151780005000F020E300F020E300F020E300F020E337
S3151780006028D01FE500E08DE500E04FE104E08DE53F
S3151780007013D0A0E30DF069E10FE0A0E10EF0B0E137
S3151780008048D04DE2FF1F8DE850201FE50C0092E8FF
S3151780009048008DE234508DE20E10A0E10F0085E8FE
S315178000A00D00A0E17A0700FA00F020E300F020E3C4
S315178000B000F020E300F020E300F020E300F020E3D7
S315178000C088D01FE500E08DE500E04FE104E08DE57F
S315178000D013D0A0E30DF069E10FE0A0E10EF0B0E1D7
S315178000E048D04DE2FF1F8DE8B0201FE50C0092E83F
S315178000F048008DE234508DE20E10A0E10F0085E89E
S315178001000D00A0E1680700FA00F020E300F020E375
S3151780011000F020E300F020E300F020E300F020E376
S31517800120E8D01FE500E08DE500E04FE104E08DE5BE
S3151780013013D0A0E30DF069E10FE0A0E10EF0B0E176
S3151780014048D04DE2FF1F8DE810211FE50C0092E87D
S3151780015048008DE234508DE20E10A0E10F0085E83D
S315178001600D00A0E1560700FA00F020E300F020E327
S3151780017000F020E300F020E300F020E300F020E316
S3151780018048D11FE500E08DE500E04FE104E08DE5FD
S3151780019013D0A0E30DF069E10FE0A0E10EF0B0E116
S315178001A048D04DE2FF1F8DE870211FE50C0092E8BD
S315178001B048008DE234508DE20E10A0E10F0085E8DD
S315178001C00D00A0E1440700FA00F020E300F020E3D9
S315178001D000F020E300F020E300F020E300F020E3B6
S315178001E0A8D11FE500E08DE500E04FE104E08DE53D
S315178001F013D0A0E30DF069E10FE0A0E10EF0B0E1B6
S3151780020048D04DE2FF1F8DE8D0211FE50C0092E8FC
S3151780021048008DE234508DE20E10A0E10F0085E87C
S315178002200D00A0E1320700FA00F020E300F020E38A
S3151780023000F020E300F020E300F020E300F020E355
S3151780024008D21FE500E08DE500E04FE104E08DE57B
S3151780025013D0A0E30DF069E10FE0A0E10EF0B0E155
S3151780026048D04DE2FF1F8DE830221FE50C0092E83B
S3151780027048008DE234508DE20E10A0E10F0085E81C
S315178002800D00A0E1260700FA00F020E300F020E336
S3151780029000F020E300F020E300F020E300F020E3F5
S315178002A068D21FE500E08DE500E04FE104E08DE5BB
S315178002B013D0A0E30DF069E10FE0A0E10EF0B0E1F5
S315178002C048D04DE2FF1F8DE890221FE50C0092E87B
S315178002D048008DE234508DE20E10A0E10F0085E8BC
S315178002E00D00A0E1080700FA120000EA00000FE1EE
S315178002F01F1000E21A0031E31F00C013130080138A
S31517800300C00080E300F029E1100F11EE020AC0E366
S31517800310100F01EEA8009FE5100F0CEE060000EBFC
S31517800320260000EB7F0500EB150F07EE9A0F07EEF9
S31517800330950F07EE1EFF2FE1EBFFFFEA0000A0E304
S31517800340170F08EE150F07EED50F07EE9A0F07EE64
S31517800350950F07EE100F11EE020AC0E30700C0E3F0
S31517800360020080E3020B80E3010A80E3100F01EE9F
S31517800370300F1FEE100080E3300F0FEE300F1FEE99
S31517800380400080E3300F0FEE300F1FEE020B80E335
S31517800390300F0FEE300F1FEE020680E3300F0FEE91
S315178003A00E50A0E1101F10EE213AA0E10F3003E2A4
S315178003B00F4001E20322A0E1022084E105F0A0E1CB
S315178003C0000000EA0000801718D09FE507D0CDE31C
S315178003D0F8D04DE207D0CDE30D90A0E100502DE97E
S315178003E0DE0000FA0090BDE800FF93002DE9F0418A
S315178003F030EE306F002465002B1926FA03F303F0CD
S315178004000703023B022B43D840EE105F30EE101FD6
S31517800410C1F3C90301F0070703F1010C0437C1F3D0
S315178004204E314FF0FF32E6465FEA5E0E02F1010269
S31517800430FAD11CEA030F18BF01320128C2F1200234
S3151780044011D103FA02F88E4648EA05080EFA07FC18
S315178004504CEA080C07EE56CF1EF1FF3EF6D213F183
S31517800460FF33EED212E0022812D103FA02F88E4633
S3151780047048EA05080EFA07FC4CEA080C07EE5ECF29
S315178004801EF1FF3EF6D213F1FF33EED2BFF34F8F35
S315178004900134072CAFD1BDE8F081002307EE153F55
S315178004A007EED53FBFF34F8FBFF36F8F704708B5F2
S315178004B00220FFF79BFFBDE8084001F007BC08B58F
S315178004C00120FFF793FFBDE8084001F0F9BB08B597
S315178004D001F070F8FFF7F3FF002308EE173F08EED9
S315178004E0163F08EE153FBFF34F8FBFF36F8F08BDCB
S315178004F030EE103F012203F0070304339A4053422C
S3151780050003408B4203D207EE3E3F1344F9E7BFF30E
S315178005104F8F01F0E1BB08B5FFF7EAFF002308EE1E
S31517800520173F08EE163F08EE153FBFF34F8FBFF301
S315178005306F8F08BD2DE9F04107460E4630EE103F06
S31517800540012503F0070304339D4005F1FF3818EAA8
S31517800550000F09D07C1E124812493A4625F083FFB0
S3151780056063196C421C4000E0044618EA060F07D050
S315178005700D4832460B4925F076FF6B42334000E033
S3151780058033469C4203D207EE364F2C44F9E7BFF326
S315178005904F8F38463146BDE8F04101F0ADBB00BFFD
S315178005A01EDD821733BF821751DD8217704710B54C
S315178005B0044601F0E2FBE3070AD501F069FD01F075
S315178005C01FF8FFF77CFF01F022FDFFF766FF09E0B2
S315178005D001F01DFDFFF761FFFFF769FFFFF75DFF6D
S315178005E001F00BFDFFF7E2FF002010BD0320FFF798
S315178005F0DEBF4FF42003586800F0030070470000F1
S31517800600184910B5D1F88022C2F30743602B14D04E
S31517800610D1F860224FF420035968C2F3074301F0DB
S315178006200301612B03D1002908BF652306E0632BDD
S3151780063004D1012908BF672300E00021C2F30720F0
S3151780064048B123F00404632C05D1012900F1FF304A
S3151780065014BF692368230130D2B202EB001040EA37
S31517800660033010BD00800C0208B5FFF7C9FFC0F331
S315178006700733652B04D1C0F30B0040F4C22008BDA5
S31517800680672B04BFC0F30B0040F4C62008BD0000DB
S3151780069010B500F0BDFF144A536823F440335360F6
S315178006A0124BD3F850211206FAD508220020C3F828
S315178006B0542100F03FFA0E4B98420DD10A4C00F0A8
S315178006C0D9F963690B4A23F4E053A0FB02010A0D9B
S315178006D0013A43EA82236361002000F0CDFF00F0E0
S315178006E0F9FF002010BD00BF00400C0200800C02ED
S315178006F0007B9A17239A08020E4A08B5D2F840311A
S31517800700D2F8701121F07C51C3F38440C2F870116E
S31517800710C0F113000028B8BF404248B123F4F8034C
S3151780072043F49803C2F8403100EB400025F0B6F940
S31517800730002008BD00800C02074BD3F83026100A1C
S315178007404A700870D3F820361A0E4B718A701A0CB5
S31517800750CA701A0A0A71704700C01B0270470000D8
S3151780076008B5FFF74DFFC0F30730622837D0FFF77C
S3151780077047FFC0F30730642831D0194B9A69C2F303
S315178007804153C2F38142022B09D0022A0ED0012B84
S3151780079015D0012A13D0032B124B04D110E0012A4E
S315178007A01AD04FF08023032A06D109E0012B13D0E4
S315178007B0032B11D04FF0802343F4000300E0094B3D
S315178007C0094A4FF08031C2F8F410C2F80431C2F8E2
S315178007D0F810C2F8083108BD4FF08023F0E708BD3E
S315178007E000400C028080008000800C0238B50C4DCA
S315178007F02C78E4B244F0800340F6B8302B7025F09D
S315178008004DF944F0C00340F6B8302B7025F046F901
S3151780081044F0C8042C70034B00221A7038BD00BFF1
S315178008200030120005401200084A136F43F0330355
S315178008301367074B01211970536B23F4FF7323F04A
S31517800840010343F4A8735363704700BF00400C023B
S3151780085005401200054B10B51B685C6900F0CAFD90
S31517800860C4F30121013128F04BFD10BD109D83176C
S3151780087038B51D4B1D4A196844F21003CB584C6A7C
S3151780088003F003035B0014335343194AA3FB022374
S315178008909D08FFF7B5FEC0F30730602805D1134BC7
S315178008A014F0400F18BF1D4617E0FFF7A9FEC0F3D7
S315178008B007306228F3D0FFF7A3FEC0F30730692805
S315178008C0EDD0FFF79DFEC0F307306828E7D0FFF716
S315178008D097FEC0F307306428E1D004F03F0128461D
S315178008E0013128F00DFD38BD109D831700366E0136
S315178008F0ABAAAAAA012837B50C460CD002282FD145
S31517800900194B44F2F0021B689D5844F210029A580C
S3151780091002F0030211E0FFF773FEC0F30730642875
S3151780092001D0032C1CD0104B1B6803F58242156827
S3151780093044F230029A5802F0010252000B4B1432DD
S315178009403F21E40002A853431222A1402940E140E7
S31517800950A3FB022360E9022324F05CFA009800E0E7
S31517800960002003B030BD00BF109D831700366E017F
S31517800970154B10B51A68D369546A03281AD8DFE855
S3151780098000F002070C11C4F3C22403F480330DE080
S31517800990C4F3024403F4003308E0C4F3C24403F4F7
S315178009A0802303E0C4F3825403F400231BB1012090
S315178009B0002102E0002401200221FFF79BFF611C22
S315178009C028F09EFC10BD00BF109D8317054B1A6833
S315178009D0136F10B143F4405301E023F44053136768
S315178009E0704700BF109D8317064B1A68D2F8803060
S315178009F010B143F0030301E023F00303C2F88030FC
S31517800A00704700BF109D8317032938B504462CD825
S31517800A10174D0CD04900032306318B4029680A6F7E
S31517800A2008B1134301E022EA03030B671BE0FFF7C4
S31517800A30E7FDC0F30730622804D12B684FF0407169
S31517800A40803309E0FFF7DCFDC0F307306428F4D064
S31517800A502B684FF440716C331A680CB10A4301E066
S31517800A6022EA01021A60002038BD6FF0150038BDE2
S31517800A70109D83171F4B10B51B68596911F00074A9
S31517800A8014D09A69C1F3C261C2F3013222B1022A24
S31517800A90194888BF002029E044F210029858164B4F
S31517800AA000F003004000143058431FE09869C0F3E4
S31517800AB0814002280FD0032812D0012809D044F28A
S31517800AC0300298580C4B00F0010040001430584300
S31517800AD00BE0022101E001202146FFF70BFF04E01E
S31517800AE001200221FFF706FF40082146013128F031
S31517800AF007FC10BD109D831700366E010B4B10B582
S31517800B001B685B695A06C3F3024408D51B0647BFA1
S31517800B100120022102200121FFF7ECFE01E0FFF7F9
S31517800B20A9FF611C28F0ECFB10BD00BF109D831731
S31517800B30FFF79EBE2DE9F0410146102800F233815A
S31517800B40DFE810F011001F002D0123002700510048
S31517800B5055008A008E00AF002201240129012B013E
S31517800B602D0131012700944B1B68196903F58043C2
S31517800B70186801F00701914B00F07F005843400831
S31517800B80FDE0BDE8F041FFF775BFBDE8F041FFF71F
S31517800B9061BE894B1B68DC69FFF732FDC0F30730EE
S31517800BA0602803D1620600F1048117E0FFF728FD5C
S31517800BB0C0F307306228F5D0FFF722FDC0F3073060
S31517800BC06928EFD0FFF71CFDC0F307306828E9D0F6
S31517800BD0FFF716FDC0F307306428E3D0FFF73AFE18
S31517800BE004F03F01CBE0BDE8F041FFF741BE724DFF
S31517800BF02B689E6BFFF704FDC6F3C5440134C0F31B
S31517800C000730692804D173031AD56C482146B7E093
S31517800C10FFF7F6FCC0F307306828F4D0FFF7F0FC2F
S31517800C20C0F307306028EED0FFF7EAFCC0F3073031
S31517800C306228E8D0FFF7E4FCC0F307306428E2D0D7
S31517800C402A6844F210035D48E100D35803F0030382
S31517800C505B001433584393E0BDE8F041FFF74EBF6E
S31517800C60554B1B68D969C1F3C254C1F34171022927
S31517800C7010D0032910D0012902D0FFF73FFF7CE05F
S31517800C8044F210024D489B5803F003035B0014335C
S31517800C90584372E0012001E001200021FFF72AFE68
S31517800CA06BE0454E33689F695C69FFF7A9FCC0F313
S31517800CB00730622805D114F08068C4F3C20539D08D
S31517800CC010E0FFF79DFCC0F307306428F3D0FFF7D9
S31517800CD097FCC0F307306028EDD0FFF7CBFEC4F33F
S31517800CE0C2414CE0FFF78CFC04F0070407F4801729
S31517800CF0C0F3073060280BD13048002F3AD13268BD
S31517800D0044F21003D35803F003035B00143309E04E
S31517800D102A4B316847B144F23002885800F00100F7
S31517800D2040001430584325E044F21002885800F0EA
S31517800D300300F5E7C7F34150022810D0032813D0D4
S31517800D4001280AD0326844F23003D0581B4B00F082
S31517800D5001004000143058430BE0022101E00120C6
S31517800D604146FFF7C7FD04E001200221FFF7C2FDC8
S31517800D7040084446691C28F0C3FA611C00E001311B
S31517800D8028F0BEFABDE8F081002000E00120BDE81A
S31517800D90F041FFF7EDBD0220F9E70320F7E7BDE83D
S31517800DA0F04100F027BB064825F05DFB0020BDE823
S31517800DB0F0810248BDE8F081109D831700366E01D9
S31517800DC0D3DD82170320FFF7B5BE000070B5544EEA
S31517800DD0544D554C3368554803F580431A6802F0CD
S31517800DE07F026A435208A2FB0423990C25F03BFB2A
S31517800DF0326844F230034E48D25802F0010252004C
S31517800E0014326A43A2FB0423990C25F02CFB326813
S31517800E1044F210034748D25802F0030252001432A4
S31517800E205543A5FB0423990C25F01DFB326844F224
S31517800E30E0034148D35803F003035A1C02EB5302CD
S31517800E403E4B5343A3FB04453D4CA90C25F00BFBA6
S31517800E503C4825F008FB0320FFF76CFEA0FB042314
S31517800E603948990925F0FFFA0520FFF763FEA0FB9D
S31517800E7004233648990925F0F6FA0220FFF75AFE19
S31517800E80A0FB04233248990925F0EDFA0720FFF7CE
S31517800E9051FEA0FB04232F48990925F0E4FA09206F
S31517800EA0FFF748FEA0FB04232B48990925F0DBFAA8
S31517800EB00A20FFF73FFEA0FB04232848990925F04F
S31517800EC0D2FA0B20FFF736FEA0FB04232448990994
S31517800ED025F0C9FA0C20FFF72DFEA0FB0423214825
S31517800EE0990925F0C0FA0D20FFF724FEA0FB0423ED
S31517800EF01D48990925F0B7FA0820FFF71BFEA0FBB6
S31517800F0004231A48990925F0AEFA0420FFF712FE32
S31517800F10A0FB04231648990925F0A5FA002070BD71
S31517800F20109D831700366E0183DE1B43ECDD821717
S31517800F3000DE821714DE821728DE821740787D013D
S31517800F40D34D6210A6E682173CDE821750DE8217D3
S31517800F5064DE821778DE82178CDE8217A0DE821710
S31517800F60B4DE8217C8DE8217DCDE8217F0DE8217C0
S31517800F7004DF821710B50E4C636F43F00303636764
S31517800F80FFF73EFBC0F3073069280AD1D4F88030C3
S31517800F9043F04073C4F88030636F43F0C0036367D0
S31517800FA010BDFFF72DFBC0F307306828EED010BDB4
S31517800FB000400C02044A054B53F820100020136892
S31517800FC00B431360704700BF00800D022C9E82175B
S31517800FD008B50146064B53F82020064B06481B6872
S31517800FE01A4214BF0122002225F03DFA002008BDBF
S31517800FF01C9E821700800D0227DF821773B5054660
S31517801000002110681022114C25F08AFA104B1149CD
S315178010100094114A0646114825F025FA022D2346D3
S3151780102005D0032D05D0012D0CD1A66202E02663CB
S3151780103000E0A6630A4A002052F825101A680A4368
S315178010401A6000E0012002B070BD00BF00800D025B
S3151780105038800D0228800D0230800D0236DF821708
S315178010601C9E821710B50446FFF7C3FA84428CBFBD
S315178010700020012010BD0000044A054B53F82010AC
S315178010800020136823EA01031360704700800D025E
S315178010901C9E821700F07F422DE9F84501F00F0359
S315178010A0160E044646EA03261F0E1D4B0D46C0F341
S315178010B00B0A0B404FEA5328FFF7A2FA000B00F0F2
S315178010C0F000702802D0BAF1000F07D00AF1037327
S315178010D005F4F87103F500330A091A6056EA07030F
S315178010E01FBF06F1037605F0F04306F50036DB0ED3
S315178010F018BF336018F4003F10D10A4A00231D40E9
S3151780110014402B0B220B42EA055252EA03011EBFEB
S3151780111002F1037202F50032C2F80080BDE8F88545
S3151780112000FEFF0700F0FF0070B504460E46FFF776
S3151780113067FAC0F30730632806D0FFF761FAC0F362
S315178011400730672818BF08340025B54204F1100404
S3151780115005D054E904010135FFF79CFFF5E770BD0B
S31517801160344B4FF4004210B51A606422013A4FF09F
S3151780117000011960FAD12F4B1B6823F4E074FFF72F
S315178011803FFAC0F30730632805D1FFF739FAC0B2A3
S3151780119010281ED805E0FFF733FAC0F30730672803
S315178011A0F3D0FFF72DFAC0F30730612811D0FFF778
S315178011B027FAC0F3073065280BD0FFF721FAC0F35B
S315178011C00730622805D0FFF71BFAC0F3073064286B
S315178011D025D1FFF715FAC0F30730612805D0FFF739
S315178011E00FFAC0F30730652808D1124A44F4A8636A
S315178011F04FF4E04143F00103516012E0FFF700FA24
S31517801200C0F307306228F0D0FFF7FAF9C0F307303A
S315178012106428EAD044F4A07343F0010301E044F054
S315178012204103044A00201360526AC9F8DC20C9F8C2
S31517801230D80010BD00800902014B586A704700BF5D
S315178012400080090208B5FFF7DBF9C0F3073063287A
S3151780125005D1FFF7D5F9C0B2102823D805E0FFF7D7
S31517801260CFF9C0F307306728F3D0FFF7C9F9C0F372
S315178012700730612816D0FFF7C3F9C0F30730652802
S3151780128010D0FFF7BDF9C0F3073062280AD0FFF7F1
S31517801290B7F9C0F30730642804D00420BDE80840A6
S315178012A0FFF748BC004808BDC0C62D000E4A10B5CA
S315178012B0136890690D4CC3F30251C3F302620C3263
S315178012C0615C1144C3F38072C3F301431344C0F3C3
S315178012D040120748825C0A441344202B1ABF012008
S315178012E098404FF0704010BD00001B02FCC182175A
S315178012F0FAC18217513821289ABF024B53F820001A
S3151780130001487047F89C8217A81F831737B5FFF7D0
S3151780131077F90446C0F30730FFF7ECFF0546002040
S31517801320FFF708FC224BC4F30312A0FB03012148E5
S315178013308B0C2946009304F00F0325F094F81E4A68
S3151780134093689360112B1D4A136029D00BD8042BF1
S315178013501AD002D8012B23D020E0082B16D0102BB9
S315178013601CD117491DE0802B14D005D8202B0FD000
S31517801370402B13D1134914E0B3F5807F0CD0B3F506
S31517801380803F0BD110490CE010490AE0104908E05C
S31517801390104906E0104904E0104902E0104900E0C0
S315178013A01049114825F05FF8002003B030BD00BF03
S315178013B083DE1B43A7DF821700800D02149D8317D8
S315178013C066DF821777DF82178FDF821759DF8217DB
S315178013D05DDF82176BDF82177FDF821785DF8217C4
S315178013E099DF821755DF8217D3DF821719F05AB91B
S315178013F017F068BA054B10B55C69FFF73BFBC4F36A
S315178014008221013127F07CFF10BD00BF00400C02FE
S3151780141014F0DCB810B50A204C46FFF78BFBC4F8DE
S31517801420D000002010BD0000F7B5044690F82800BC
S3151780143016F02CFC207C16F029FCD4E90801FFF75E
S3151780144029FED4E90201FFF725FE94F8280016F045
S3151780145001FC0546207C16F0FDFB00EA05020346D3
S31517801460012A01D1002537E094F828202048214900
S315178014700092227C01922A4624F0F5FF0925002145
S31517801480207C16F019FC322024F008FB207C16F0FD
S31517801490FDFB322024F002FB013DF0D1284624F0D3
S315178014A0BAFA074694F8280016F0D4FB0646207C2D
S315178014B016F0D0FB00EA06030546012BD2D0384634
S315178014C024F0A9FAC828EDD92B460B480949324684
S315178014D024F0C9FF6FF00F05D4E90601FFF7DAFD8F
S315178014E0D4E90001FFF7D6FD284603B0F0BD00BF4B
S315178014F028E0821779BF821753E0821703282DE9D0
S31517801500F041064686B0884617461D4631D81B4990
S3151780151003A8324624F09AFF95F8280003A916F0F7
S31517801520ADFB40BB1649324603A824F08FFF287CB3
S3151780153003A916F0A3FB0446A8B901203146FFF785
S3151780154063FA044660B92846FFF76EFF044638B932
S315178015500095304641463A460A4B16F013FF06E089
S31517801560287C16F091FB95F8280016F08DFB2046FF
S3151780157001E06FF0150006B0BDE8F0817BE08217B9
S3151780158087E082172914801708B5FEF798FF00F0B1
S3151780159051FD002006491E2200F0FDFC4FF4100075
S315178015A04FF480211E22BDE8084000F0F4BC00BF2E
S315178015B0FFFF0F000F4A136843F4800313600E4B27
S315178015C01A6822F001021A600C494FF499720A6060
S315178015D04A6001F658610A6842F0E1420A60203192
S315178015E00A6842F003020A601A6842F001021A601A
S315178015F0704700BF0421A0000021A0000821A00089
S31517801600024A136823F00103136070470021A00074
S3151780161008B516494FF077330B604B60144A136041
S31517801620536000230B644B648B64CB640B65136424
S3151780163053649364D3641365FEF7E2FFC0F30730F0
S3151780164062280BD10B4B4FF077321A605A60002203
S315178016501A645A649A64DA641A6508BDFEF7D0FF6D
S31517801660000B00F0F0007028ECD008BD00C0070210
S3151780167000C0170200C0270238B50446FEF7C0FF20
S31517801680124BA4B2124AC0F3073064280CBF154612
S315178016901D46A3F5E6131C814FF003731C81FEF7D5
S315178016A0AFFFC0F30730622801D12C8138BDFEF712
S315178016B0A7FFC0F307306428F7D0FEF7A1FF000B0A
S315178016C000F0F0007028F0D038BD00BF00802802E7
S315178016D000401E02024A136823F001031360704705
S315178016E000800D02054B18645A6C10B142F0805277
S315178016F001E022F080525A64704700BF00800D02C5
S315178017002DE9F0412E480DF04DFB2E4F0546D8B9E1
S315178017102D4E0446B0463B689C420AD2F36883B185
S315178017203046984768B175692848294624F09BFE44
S31517801730CDB9D8F8145000242548294624F093FEAD
S3151780174011E001344C36E6E700243B689C420AD206
S315178017501D4A4C23284603FB0423596923F0C3FFEC
S3151780176008B10134F1E73B689C4220D24C25164ECE
S3151780177000216543701905461430AA6814F068F974
S31517801780024668B92B690BB1284698474C231148EE
S3151780179003FB04646169E269236A24F064FE03E04B
S315178017A00D48696924F05FFE0020BDE8F08129465F
S315178017B00A4824F058FE6FF01500BDE8F08100BF87
S315178017C093E08217D09D83177CA2821799E08217A0
S315178017D0B1E08217D3E08217E8E0821709E1821712
S315178017E0024B1878C0B200F0F2007047043012002E
S315178017F02DE9F04100270546B846144B53F8284083
S31517801800A4B1083454F8080C80B123F099FF064622
S315178018104DB12846324654F8081C24F028F8AB19DF
S315178018205D1C7C221A7001363744EAE7B8F1000F3F
S3151780183002D14FF00108E0E725B1681E04490B2253
S3151780184024F015F807F10A00BDE8F081CC2F84172C
S315178018501FE18217012A2DE9F84590461F4602DCBB
S315178018604FF0FF352EE0D3F804A00026174B53F818
S3151780187026404CB9002EF3D10126F7E7514623F0BF
S3151780188032FF054620B1083420680028F6D1F1E7E3
S31517801890002CE5D0B8F1030F07D1B8680C4923F0AF
S315178018A022FF0028DCD12E4600E001266068FFF76C
S315178018B019FF3EB163682BB10020014602460346E5
S315178018C000F03CFB2846BDE8F88500BFCC2F84176F
S315178018D02AE1821738B505460A4C206918B10DF0EA
S315178018E00BFF00232361084B0020084A1D605A60AE
S315178018F0FFF77EFF0DF0B0FF054610B1FFF778FFB3
S31517801900256138BDF8248417CC2F8417D4A982175C
S31517801910044B1B78DBB213F0F20F0CBF01200020AB
S31517801920704700BF0430120070D09FE507D0CDE313
S315178019300D00A0E1820200FA00D0A0E10000A0E32A
S315178019409B0800FA40D099E507D0CDE3009099E53A
S31517801950F89049E20CE08FE2440099E500E08EE0CA
S31517801960300099E5140000EA100000EB6DFAFFEBE2
S315178019702C009FE52C109FE50020A0E3010050E185
S315178019800020803504008032FBFFFF3A590800FAA1
S31517801990580800FB0900A0E1301099E508F09FE58B
S315178019A000FF9300CC2F841790DA8817F13C8017A5
S315178019B0300099E5100F0CEE1EFF2FE14C109FE5B6
S315178019C0014050E01000000A44209FE5000CB1E862
S315178019D0000CA0E8020051E1FBFFFF3A34209FE597
S315178019E034309FE50300B2E8FF1001E2170051E398
S315178019F00300001A040080E0001090E5041081E0CF
S31517801A00001080E5030052E1F5FFFF3A1EFF2FE134
S31517801A1000008017CC2F8417CC2F84178CB6841789
S31517801A201FB50023D9F800200393916CD26C8DE8EB
S31517801A300A0069460292012302AA04F01BFF05B029
S31517801A405DF804FBD9F8003073B505461B6C0C4658
S31517801A50066E174801930DF0A5F948B1102101AA12
S31517801A6024F096FD002820DB1248019924F0FBFC10
S31517801A700F2004F4007400F078FC0F4B0F491048C0
S31517801A80002C08BF194624F0EEFCAA2000F06DFC46
S31517801A90FEF7ACFD2B6F0BB1EA6E02E0D9F800307A
S31517801AA05A6C14B920460199B04702B070BD00BF71
S31517801AB06BE1821772E18217F199831754E18217C6
S31517801AC097E1821710B56946D9F80040A1F580517C
S31517801AD0D9F80030DA6CA36CBDE810401A44521A54
S31517801AE022F08ABA70470000F8B5064634480DF0DA
S31517801AF059F9336F4BB130460EF0D3FD00285ED0BF
S31517801B00304824F0B0FC23F0C5F9D9F800102E4CD4
S31517801B104D6C052185E812002C4CAB60EB602B6170
S31517801B2005F114032360D9F80030B8B1074610F8C9
S31517801B30013B202BFAD08BB1254B3846AB6123F06E
S31517801B40FFFD39460D30800868612068083023F01C
S31517801B5092FD23681A6803EB82032360FEF784FDE0
S31517801B6023681C4A032183E806001B4998600420D2
S31517801B70D9F800201961D860916C9961D26C5A6135
S31517801B8003F11C02716E226081B1B26E72B14D463D
S31517801B90521A2D682C3343F8042C104D0B4A43F8F0
S31517801BA0100C43F80C5C43F8081C13600748FFF7C2
S31517801BB099FF00224B461B6823685A601A60F8BD46
S31517801BC02EFA8217B0E1821701004154D42F841759
S31517801BD009004154070041540200415405004254FC
S31517801BE0F8B510F0C00504461E4615D114F4807753
S31517801BF0184602D0FFF778FF10E014F4C06504D0BA
S31517801C0021463D46FFF71EFF08E0FFF76DFF30467A
S31517801C102146FFF717FF01E04FF0FF352846F8BD3D
S31517801C2038B50D460A4B0446416A994204D009488D
S31517801C300DF010FB012038BD836A21462B60C36ADD
S31517801C40054813602A6824F00EFC002038BD00BFB3
S31517801C5018286F01D0E18217EDE1821710B5044677
S31517801C60C06E58B1074921F07FFC002806DAE06E6E
S31517801C70FFF7D6FE10B104480DF0ECFABDE8104018
S31517801C80FEF7B4BC18E2821720E28217036EC06E85
S31517801C9018470000084B1B6813F4803F14BF4FF496
S31517801CA080334FF48073013B03600368002BFCD1AC
S31517801CB0024A1360704700BF0421A0003027A00096
S31517801CC00148FFF7E7BF00BF7C27A0000148FFF751
S31517801CD0E1BF00BFFC27A00020F01F00884203D277
S31517801CE0034B18602030F9E7024B00221A607047C1
S31517801CF0F027A0003027A000C20638B504460D4647
S31517801D0007D022460C480D491F3424F0ACFB24F02B
S31517801D101F04EB0606D02A460948084925F01F05F1
S31517801D2024F0A1FBAC4203D2064B1C602034F9E7A2
S31517801D30054B00221A6038BD1EDD821749BF8217F0
S31517801D4051DD82177027A0003027A000D9F84020D0
S31517801D500020C9F83C20D9F84030103BC9F84030EC
S31517801D6070470000034A0020D9F83C3008331360C7
S31517801D70704700BF400080177047002070470000EB
S31517801D8008B5014824F0C2FB42E28217F0B5A3B02A
S31517801D9004463449802202A823F069FDA26B324893
S31517801DA0E16B256C24F05FFB05F07046D9F80420AB
S31517801DB0D2070AD5D9F84410E76BD9F84430A26B05
S31517801DC0791A2A48D21A24F04EFB616B226BE36A82
S31517801DD0274824F048FBA16A626A236A254824F0BB
S31517801DE042FB236924480093E169A269636924F059
S31517801DF03AFB236821480093E168A268636824F058
S31517801E0032FB002EB4BF4E216E2115F0804F14BFC2
S31517801E105A227A2215F0005F14BF4323632315F0E5
S31517801E20805F14BF562076200090154824F01BFB40
S31517801E30236C144A22A8144C13F0800F14BF114632
S31517801E40214613F0400F03F01F0308BF224600EB0D
S31517801E5083030E4800900E4853F8803C24F003FB0A
S31517801E6023B0F0BD009C82175BE2821755E282177A
S31517801E707DE28217A1E28217C5E28217F5E2821701
S31517801E8025E38217EAF582170F8E8317F199831741
S31517801E9035E3821708B50446034824F0E4FA20464A
S31517801EA0FFF774FFFFF76CFF54E3821708B50446F4
S31517801EB0034824F0D8FA2046FFF768FFFFF760FF3C
S31517801EC06BE3821708B50446034824F0CCFA2046FC
S31517801ED0FFF75CFFFFF754FF7FE3821708B50446C9
S31517801EE0034824F0C0FA2046FFF750FFFFF748FF54
S31517801EF08FE3821708B50446034824F0B4FA2046C0
S31517801F00FFF744FFFFF73CFF9BE3821708B50446AC
S31517801F10034824F0A8FA2046FFF738FFFFF730FF6B
S31517801F20A5E3821708B50446034824F09CFA204691
S31517801F30FFF72CFFFFF724FFAAE3821708B5084897
S31517801F400DF088F94CF2503023F0A8FDFFF715FFF6
S31517801F50FEF704FC002015F053FE002008BD00BFD5
S31517801F60A8E482170144FEF7C3BA82B0002301930F
S31517801F70019B632B03DC0046019B0133F7E702B015
S31517801F8070477047D9F8F03041EA005141F4406103
S31517801F9043F82010704700F57F2303F6FF73194423
S31517801FA02DE9F041050DD9F8F0700C0D90462E46A7
S31517801FB0A64205D230464146FFF7E4FF0136F7E7DA
S31517801FC007EB850007EB8401BDE8F041FEF7A3BA5E
S31517801FD038B5D9F8005005EBC005AC6C240DAB6C41
S31517801FE0EA6C1B0D03EB12539C4205D220461E2129
S31517801FF0FFF7C8FF0134F2E738BD10B511EE104F61
S31517802000FFF7B3FF44F4805401EE104F10BD10B59F
S3151780201011EE103FFFF7A9FF11EE104FFFF7A5FF3F
S3151780202024F4805401EE104F10BD11EE100FC0F33B
S315178020300030704710B511EE104F14F001041ED101
S31517802040FEF745FA204612210134FFF79BFFB4F5B8
S31517802050805FF7D10020FFF7BBFFD9F8F03002EE8B
S31517802060103F4FF0FF3303EE103FFFF78AFF11EE55
S31517802070104FFFF77AFF44F0010401EE104F11EE6F
S31517802080104FFFF772FF44F0040401EE104F10BD96
S3151780209010B511EE104FFFF768FF630709D511EEDC
S315178020A0104FFFF762FF24F00504FEF700FA01EEE2
S315178020B0104F10BD11EE100FC0F38000704700004F
S315178020C008B501210648FFF72FF83C2015F0DEFDED
S315178020D03C2015F0BFFD003018BF012008BD00BF9A
S315178020E0F09A821708B519210648FFF71DF80121BE
S315178020F02A2015F0E1FD2B200121BDE8084015F0B7
S31517802100DBBD00BF60998217FEF770BB10B504461A
S31517802110006815F041FE30B9207915F085FEB0FAC2
S3151780212080F0400910BD002010BD10B54C46FFF752
S31517802130BDF86063002010BD08B50369094A1B689E
S31517802140934205D002F50042934208D1492000E018
S31517802150022015F07FFDB0FA80F0400908BD0020F7
S3151780216008BD00BF0000190270B500250646134C3E
S315178021705DB913480721FEF7D7FF0C20FEF7DAFC67
S3151780218004232372606049200BE00E480721FEF76F
S31517802190CBFF0A20FEF7CEFC042384F83430206365
S315178021A0022015F073FD2C21304601FB054116F0F0
S315178021B017FB10B90DB90125D9E770BD489D83174F
S315178021C0909B8217209B821710B5102104460B48C7
S315178021D0FEF7AAFF00215D2015F06EFD0A2023F079
S315178021E06BFC01215D2015F01BFD642023F056FC46
S315178021F02046BDE81040FFF7F9B800BF60988217F0
S3151780220008B502211248FEF78FFFFEF7B3FEFEF7D9
S315178022100BFB104A536B43F003035363FEF7F0F936
S31517802220C0F30730632803D10B4842F2500107E009
S31517802230FEF7E6F9C0F307306728F5D0074850212F
S31517802240FEF728FF742015F021FD002008BD00BF7A
S31517802250009B821700400C026C014800AC003C00C2
S315178022600120704708B51148FFF734FBFEF7C8F908
S31517802270C0F30730632802D10D480E4907E0FEF7F1
S31517802280BFF9C0F307306728F6D009480A490CF01A
S315178022902FFCFFF715FF10B10848094901E00748D9
S315178022A008490CF025FC002008BD00BFA49D8217A5
S315178022B0D4E48217DEE48217E3E48217E9E482170F
S315178022C0F4E48217F7E4821708B50120D9F80030AD
S315178022D00F4A10495A647F220F4BFFF70FF9FEF703
S315178022E08FF9C0F30730632804D1012009497F226B
S315178022F00A4B09E0FEF784F9C0F307306728F4D054
S3151780230004490120044B7F22FFF7F8F8002008BD07
S3151780231000010010A0860100A09D8317189D8317C2
S3151780232008B5FFF7CDFE08B1034800E003480CF067
S3151780233091FF002008BD00BFFAE4821713E58217C4
S31517802340814670476FF4947300211844F82210B5AC
S3151780235020F00F04204623F069FA2046FFF7F0FF96
S31517802360A4F58060C9F8C00010BD704708B5AB20CA
S31517802370FFF7FBFF0EF03AFD01F070FA01F088FACD
S31517802380BDE808400EF02EBD704708207047000044
S3151780239010B580204C460DF05FFA3D4A3D49A06640
S315178023A0D9F868301A60D9F868303B4A5A60D9F834
S315178023B068303A4A9A60D9F86830394ADA60D9F873
S315178023C06830384A1A61D9F86830374A5A61D9F865
S315178023D06820364B9361D9F86820D361D9F868207D
S315178023E01162D9F8682032495162D9F86820314983
S315178023F09162D9F868203049D162D9F868202F4977
S315178024001163D9F868202E495163D9F868202D4968
S315178024109163D9F868202C49D163D9F868202B495C
S315178024201164D9F868202A495164D9F8682029494E
S315178024309164D9F868202849D164D9F86820274942
S315178024401165D9F8682026495165D9F868209365AA
S31517802450D9F86820D365D9F868201366D9F8682023
S315178024605366D9F868209366D9F86820D366D9F861
S3151780247068301C4A1A67D9F868301B4A5A67D9F8E0
S3151780248068301A4A9A67D9F86830194ADA6710BDD8
S315178024908B23801759F88017B5F28017E9F28017C2
S315178024A079F2801755F28017676482178923801708
S315178024B0F9F680179D5A8217175A821793648217CF
S315178024C03D1F8017A5ED8017F1EA801721658217C2
S315178024D091658217D3658217E75682177D7E811796
S315178024E0497E8117ED658217C166821777568217DF
S315178024F0B95A82172DE9F041069E079D012E28DDD0
S31517802500CB0701D5022E24D000211022286824F06B
S3151780251007F8002110220746686824F001F8394623
S315178025204FF4803304460020224622F071FC3A1974
S315178025303946013A80460A48434623F094FF022ECD
S315178025400BD0A8680021102223F0EAFFC0F800807C
S3151780255003E04FF0FF30BDE8F0810020BDE8F08141
S315178025606EE58217026800234360036102B1137018
S31517802570704703685A1C02601878002808BF4FF006
S31517802580FF30704703681878704703681878704764
S31517802590013810F8013F13B1014AD154F9E7704752
S315178025A010328417014823F05EBF00BF99E5821762
S315178025B02DE9F34D002704468B46002C3DD0002786
S315178025C0B846236898452CDA1825D4F804A005FB55
S315178025D008F50AEB05065AF80530C3B10023B26829
S315178025E0934208DA3268019352F823000DF084F883
S315178025F0019B0133F3E75AF805000DF07DF87068F3
S315178026000DF07AF80023B3604AF8053006E0F068D3
S3151780261020B10BF10301FFF7CBFF074608F101083D
S31517802620CFE760680DF068F8A568002320466360D9
S31517802630A3602C460DF060F8BFE7384602B0BDE8B8
S31517802640F08D000008B50DF007F918B9024823F088
S315178026500AFFFEE708BD00BFA7E5821708B5142055
S31517802660FFF7F0FF0022026042608260C26002615B
S3151780267008BD000008B50DF057FB18B9024823F0BE
S31517802680F2FEFEE708BD00BFA7E58217036870B59F
S315178026900646856833B1DA680AB91B68ABB12B6809
S315178026A001332B6029681824686801FB0441FFF7FA
S315178026B0E1FF2B6800225C430319686002515A6058
S315178026C0DA601A61B26933605A61002070BD38B515
S315178026D004460D46FFF7DAFFA368E268DD6000253A
S315178026E01A61FFF7BBFFA3689860A0602046256034
S315178026F0FFF7CCFF284638BD43682DE9F04D0746CE
S315178027000C460D6823B9036913B90020BDE8F08D0F
S31517802710EB6813B1FFF746FFCEE02B6813B13B6822
S3151780272001207DE0A3699E07F9D5DFF8988138687F
S31517802730D8F8001022F0D7FF8246002862D1D8F841
S31517802740083018052AD51C20FFF77CFFE3680C2B69
S31517802750834601D0062B05D1FFF724FF58460CF088
S31517802760CBFF25E0264605460FCE0FC596E8070010
S3151780277085E80700C4F808A0C4F800A0FFF76EFF25
S31517802780C4F80CA0C4F814A0C4F810A06060A060A8
S315178027902046FFF77BFFC4F814B00CE0E3682BB133
S315178027A02369D8F804201341D90704D4FFF7FAFE12
S315178027B00D23E3601CE0D8F80430E360D8F80830BE
S315178027C0DA07236114D501212046FFF780FFD4F855
S315178027D014E062682546DEF800307646DA600FCE5A
S315178027E00FC596E8070085E8070070460CF084FF4A
S315178027F03846FFF7B7FEE068A0F10D0358425841F7
S31517802800BDE8F08D2E4B08F10C0898458FD386E7D7
S315178028101A783AB15C2A00F1010008BF01330133F7
S31517802820002BF5D10DF018F88046002844D028687B
S3151780283000B9A860AE68731C0236AB60B600314625
S315178028400DF072FA286028B1686831460DF06CFA77
S31517802850686018B940460CF04FFF2DE02A68A6F13C
S3151780286008033969043E42F803806A68D150002309
S315178028702A6893516A6893513B6893B900253846FD
S3151780288088F80050FFF76EFEE368062B7FF43DAF9E
S3151780289021463846FFF730FF20460121FFF717FFFD
S315178028A033E71A78002AE9D05C2A08BF013313F870
S315178028B0012B08F8012BE0E70120BDE8F08D00BF5A
S315178028C0589E8317D49D8317012A2DE9F34D1746F2
S315178028D09B4612D11F4B1C68002C36D094E80600F5
S315178028E01D4823F0C0FD0CF00DFD20B11B480CF0E0
S315178028F0B1FC01202AE02469EEE700240126BE42B6
S3151780290023DA144B4FF0FF3A5BF826801D6895B192
S315178029102868414622F0E7FE38B9019095E8060007
S315178029200D4823F0A0FD019B9A460CF0EBFC00287E
S31517802930DCD12D69EBE7BAF1FF3F04D10848414650
S3151780294023F091FD01340136D9E7204602B0BDE860
S31517802950F08D00BF14338417C5E58217CCE582172F
S31517802960D8E5821788B1094A0378D35C13F0030335
S315178029700AD010F8013FD15C4907FAD15F2BF8D0FE
S315178029803D3B58425841704718467047FAC08217E0
S3151780299003682DE9F0410446002B76D136E022F004
S315178029A0CFFE002866D101236360A36800263C4DBD
S315178029B0012B08BF3B48A84618BF3B480EF09EFD23
S315178029C00130284601BF00236360384A136022F01E
S315178029D0B7FE0A232B54284446700CF0F1FC08B135
S315178029E0324B1E600CF0F2FCA768314B0026012F84
S315178029F01E6017D12A782D4D0A2A0BD12A687AB9E3
S31517802A002C48274922F037FE2A4B23602068002856
S31517802A10C5D1C8E72748224922F02DFE2F60F3E754
S31517802A201F60F1E72B780A2B1BD0224D284622F000
S31517802A3087FE07461A4822F083FE3844B0F5007F92
S31517802A400AD2284622F07CFE15492023284400F80E
S31517802A50013C22F010FE04E00A232B70134B6E7094
S31517802A601E6062681AB9134B0A215A701970C4F816
S31517802A700080CBE720680223A36078B1037863B11F
S31517802A80431C23600078BDE8F0811A78002ABDD0F0
S31517802A905A1C02601878BDE8F0811846BDE8F081A7
S31517802AA0D4948517D815831785878317003084178D
S31517802AB0103384170830841770B50E46436804465A
S31517802AC081688B420CDB056801F16403653183608D
S31517802AD028460DF029F9206010B928460CF00CFE0F
S31517802AE0236843B1626800209E5463682268013365
S31517802AF06360D05470BD012070BD000038B50446A0
S31517802B000D462AB920462946BDE83840FFF7D4BF77
S31517802B10054822F008FE0028F4D020465C21FFF7EE
S31517802B20CBFF0028EED038BDF4E5821738B50546B9
S31517802B3008B9002038BD0378242B0DD1437800209F
S31517802B400C4C3F2B207014D10B4B20460B491A681F
S31517802B5023F07CFC204638BD094B1C68002CE8D036
S31517802B602068294622F0BFFD08B9606838BD2469F8
S31517802B70F4E738BDD82F84170C328417F9E58217F6
S31517802B80143384172DE9F04D884603783C4AD35C75
S31517802B909B0723D022F0F8FD07460CF003F904466D
S31517802BA018B1384823F05FFC06E038463D2122F0FD
S31517802BB0BAFD08B143781BB938460CF09DFD0DE078
S31517802BC0314B00F1010A04701D681C4655B12868FF
S31517802BD0394622F088FD28B32D69F7E74FF0FF3085
S31517802BE0BDE8F08D14200CF037FE064628B338461C
S31517802BF022F0CAFD306018B930460CF07DFD1CE016
S31517802C005046D4F800B022F0BFFD3561C6F808806B
S31517802C10F5607060DBF810400CB1A346FAE7CBF885
S31517802C2010600CE06868514622F05DFD68B1EB686C
S31517802C309BB11648394623F016FC4FF0FF343846B9
S31517802C400CF05AFD2046BDE8F08DB8F1000F15DD62
S31517802C50AC689CB9C5F80880F1E7B8F1000F02DCBB
S31517802C60AB68012B01DD0123AB60686800240CF08B
S31517802C7043FD504622F088FD6860E0E70124DEE7D1
S31517802C80FAC08217FCE58217143384173FE682173A
S31517802C902DE9FF4D002405460291A0462646284673
S31517802CA0032122F040FD0746002800F0AF80AF428F
S31517802CB00ED0C5EB070A204606EB0A084146FFF7F2
S31517802CC0D9FC294652460446304422F0DCFC464657
S31517802CD0013703214FF00008384622F024FD019072
S31517802CE080F80080002F00F08A8038463A2122F03B
S31517802CF01AFD824618B900229046154612E0437887
S31517802D0080F800802D2B02D1851C42460AE03D2B88
S31517802D1004D14246851C4FF0010803E02B2BEAD1DC
S31517802D20851C0122384603920CF03CF8039A834699
S31517802D3048B93846FFF7FAFE039A834618B9B8F1A9
S31517802D40000F28D007E05846039222F0F9FC039A21
S31517802D500028F4D019E0384622F0F2FC804628463F
S31517802D6022F0EEFC404402300CF076FD804640B1EE
S31517802D7036493A462B4623F069FB40460021FFF732
S31517802D8001FF40460CF0B8FC05E042B1584622F0E8
S31517802D90D7FC0BEB0005BAF1000F04D106E05D46B0
S31517802DA0BAF1000F03D03A238AF800303DB3029B5D
S31517802DB0284623B122F0C4FCB71C074402E022F050
S31517802DC0BFFC87192046791CFFF754FC029B0446E3
S31517802DD083B106F10108294680444FF0040A40461C
S31517802DE022F049FC04F806A0284622F0A9FC08F828
S31517802DF000A003E03044294622F03DFC3E46019D63
S31517802E0003234FF0010805F8013B48E7B8F1000F97
S31517802E1014D0284622F094FC711C01442046FFF7F3
S31517802E2029FC29460446304422F025FC20460A21EF
S31517802E3022F079FC10B120230370F7E7002C14BF1A
S31517802E402046284604B0BDE8F08D00BF55E68217A8
S31517802E502DE9F0410E4686B00446002836D0037811
S31517802E60002B35D00A21DFF8788022F05CFC1A4FC8
S31517802E7008B14378F3B1204622F062FC0230FFF79F
S31517802E80E1FB2146054622F0F6FB1449284622F037
S31517802E9006FC314601A80123CDF8148002930393CB
S31517802EA00497019500F088FA044628460CF024FC0E
S31517802EB020460EE001A831460123CDF814800497E9
S31517802EC002930393019400F077FA02E0012000E061
S31517802ED0184606B0BDE8F08173258017A6E68217D7
S31517802EE0852580172DE9F04D8EB006460346E3B14A
S31517802EF01A699B680C2A01D0062AF8D12BB9FFF7D5
S31517802F0051FB9A4B00221A6040E20C2A07D11A69A4
S31517802F100C2AECD15A681268002AE8D0EFE7062AFD
S31517802F20E5D11A690C2AE2D0E9E74FF00B08012799
S31517802F301D469B4604930593079306930B9303931A
S31517802F400A935EB33369063B022B0DD80CF0DAF978
S31517802F500CF036FA002840F01982049B1BB90496A8
S31517802F608346069000E006903469444506D12FB112
S31517802F70F76817F1FF3718BF012700E2022C00F018
S31517802F80F881042C04D1059B002B00F0F481FFE116
S31517802F90032C05D1079B002B40F0C0802846FBE108
S31517802FA0062C40F0A5803368002B00F0B780039B72
S31517802FB0002B79D1B3685B681F68002F00F0DD811D
S31517802FC073684FF0000A1B681B6818460A9322F02D
S31517802FD0B7FB0B900420FFF735FB3B1F0993039034
S31517802FE0099B53F8040F0993002851D00021FFF746
S31517802FF04FFE8046089098F80030002B3FD0202B44
S3151780300002D108F10108F6E74046202122F08BFB12
S31517803010034610B1C8EB000B05E0404622F090FB43
S3151780302008EB000383460AF1020703980C930AF10B
S31517803030010ABF003946083FFFF71CFB0B9B03901D
S31517803040981C5844FFF7FEFA039B0A99D85122F029
S3151780305012FB039B4649D85922F021FB039B5A46FC
S315178030604146D85922F02AFB039BDA590B9B1A44FF
S315178030700C9B9344002298468BF80120BBE7099B4B
S31517803080089A1B689A42ABD010460CF035FBA7E717
S31517803090039B4FF0010B43F82A0073681B681A6865
S315178030A01860039B0A920B93039BD3F8008073686F
S315178030B01B681868B8F1000F0ED10CF01DFB0B9822
S315178030C00CF01AFB73680A9A0B240127C3461B68F0
S315178030D0CDF80C801A6052E108B10CF00DFB7368BD
S315178030E0039A1B6812681A60039B0433039315E0CF
S315178030F00C2C00F04281092C04D1BBF1000F00F093
S315178031003C810BE00A2C09D1049BBBF1000F08BF49
S3151780311000230493069B18BF012306933368002B5D
S3151780312000F02B81134A012BD2F8008040F00081E2
S31517803130D6F804A0DAF80C0010B1FFF7D3FEECE04E
S31517803140DAF80030002B00F0F380054653F8257027
S3151780315008933846FFF706FC089B08B10135F5E753
S31517803160002D45D03FB3054642E000BF0030841797
S31517803170131783171033841722F006FB3D21054654
S3151780318022F0D1FA08B10023037028460CF0B4FA5E
S31517803190DAF800300021D859FFF77AFD0021054665
S315178031A0FFF7F0FCDAF80030DB599D4202D028464B
S315178031B00CF0A2FA0437DAF80030D8590028DBD198
S315178031C00546B7E010460021FFF762FD0021074646
S315178031D0FFF7D8FCDAF800305B599F4207D0DAF848
S315178031E010303846013BCAF810300CF085FA043592
S315178031F0DAF800305F195A5910460892FFF7B2FB72
S31517803200089A0028DED1DAF8101000296DD00890B8
S315178032106348DAF80480FFF789FC38B10078089B91
S31517803220302805D0031C18BF012301E0099000E060
S31517803230099345444FF000083B1F089347460223DE
S315178032400C93089B53F804AF0893BAF1000F3AD042
S3151780325009995046FFF71CFD824622F071FA2968B4
S315178032600C9B0D9503EB410101443846FFF702FA93
S315178032700746B8F1000F03D04A4922F010FA01E049
S3151780328080F800802B681BB13846474922F007FA29
S315178032903846514622F003FA0D9B04351B681BB13D
S315178032A03846414922F0FBF9384622F049FAC31CC1
S315178032B00C93089B1B689A4502D050460CF01CFA53
S315178032C008F10108BDE7384622F03AFA0A230521A4
S315178032D03B54384480F801A03846FFF7B9FD384685
S315178032E00CF00AFA314B1D6818E010463B2122F084
S315178032F01AFA30B1DAF800302D48595923F0B3F855
S3151780330016E0009018F1000018BF0120DAF80810AF
S31517803310DAF80020274B0EF095FB05466B1C09DA69
S31517803320224A6FF001035B1B6FF00100136033E0D5
S315178033304FF0FF351D4A2B1C18BF0123136024F04D
S315178033400202012A26D0072C02D183F0010B02E054
S31517803350082C08BF9B4615B9F368032B02E023B1E7
S31517803360F368022B18BF0B2408E00B2401271D4690
S3151780337005E0059B63B1059B07930B240127069BE5
S315178033800BB9B66800E0049EA046DAE5012003E093
S315178033900793C3E60595DEE70EB0BDE8F08D00BF4F
S315178033A05BE6821731988317B2EB82170C32841734
S315178033B068E68217003084172DE9F04D90B00446E1
S315178033C00F4604A800211422012522F02FFA002681
S315178033D00F970B960996FFF741F90C960E960D9651
S315178033E0A84E0A900B9009A8FFF750F9A6480BF03C
S315178033F0D9FC08B1306001E0A44B33604FF480727A
S315178034000021A3484FF0000822F010FA03A80321E1
S3151780341004238DF80D808DF80C30FFF7B9F89D4889
S315178034200321FFF7B5F89C480121FFF7B1F83068FB
S315178034300221FFF7ADF807F00603022B03D0974852
S315178034404146FFF7A5F817F0080F4FF00103A36061
S3151780345014BF4FF0FF330A230193E368204698473A
S31517803460B0F1FF3F834600F04A81894A12F80BA0D4
S315178034706268002A00F04581BBF10A0F04D02269E1
S3151780348020469047804601E04FF00008BAF1000FBA
S3151780349005D00AF1FF32012A15D8079A12B104A866
S315178034A0594659E0BAF1020F0DD104A809A9FFF7B9
S315178034B023F9002840F02581BBF10A0F03D109A80B
S315178034C00121FFF704F9019B9B4505D1079E1EB97C
S315178034D00C9A002A00F01A81BAF1020FBDD0BBF1FF
S315178034E0260F00F0DF8012D8BBF1220F00F0BA80CA
S315178034F006D8BBF1040F40F0FF8001230893F5E04F
S31517803500BBF1230F17D0BBF1240F38D0F4E0BBF1F2
S315178035103B0F00F0AF8006D8BBF1270F40F0EC8049
S315178035200123089397E0BBF15C0F19D0BBF17C0F91
S3151780353000F0C580E0E0059B63B9079B53B9236903
S3151780354020469847411C88D00A2886D0E3682046AB
S315178035509847F4E704A82321079AFFF7CFFA7CE761
S31517803560B8F1FF3F00F0C8805946079A04A8FFF7BD
S31517803570C5FAE36820469847014604A8ECE722690E
S3151780358020469047464A9046C1B20646515C11F08E
S31517803590030F1BD004A80321FFF78EFA099A136924
S315178035A001331361236920469847C3B2064618F834
S315178035B003305A0707D0E3682046984704A8314650
S315178035C0FFF77AFAEEE75F2834D1F4E73F280DD074
S315178035D07B2834D104A80321FFF76EFA099A20466F
S315178035E0136901331361E36898471CE0099904A8A6
S315178035F00A6901320A610321FFF75EFA594604A860
S31517803600FFF75AFA314604A8FFF756FA04A803219A
S31517803610FFF752FAE368204698471EE77D2809D0B8
S3151780362004A8FFF749FAE36820469847431C0146E2
S31517803630F4D161E004A80321FFF73EFA0DE704A849
S31517803640242189E727283FF408AF6368002B58D0D1
S3151780365004A8FFF731FAE36820469847461C0146C7
S31517803660F0D149E001230893079BB3FA83F35B09EB
S315178036700793F2E609A904A8FFF73EF809A80121DE
S3151780368029E000BF04308417A0E68217A4E68217C4
S3151780369010328417A8E68217ADE68217B2E682172C
S315178036A0FAC0821704A809A9FFF726F8B8F1260FDA
S315178036B022D1E3682046984709A802210BE004A87F
S315178036C009A9FFF719F8B8F17C0F15D1E3682046D9
S315178036D0984709A80321FEF7FAFFBEE604293FF4A7
S315178036E0BCAE63686BB104A8FFF7E6F9E3682046BA
S315178036F0984701460130F1D1FEF754FF01E006469F
S3151780370004E03A4B002201261A600BE00D9B23B189
S31517803710FEF748FF354B00221A60DDF83480B8F182
S31517803720000F2ED00D9B2BB10E980BF0E5FF04A83A
S31517803730FEF718FF636813B92D4822F094FE00210F
S315178037400123216063600A9808910791FEF730FF7D
S3151780375004A8FEF707FF04980BF0CEFF0023049307
S31517803760069301363BD0FB0739D42269214B9A42FF
S315178037707FF42DAE2046FEF705FF00287FF427AE8F
S315178037802DE009A904A8FEF7B7FF012109A8FEF7BE
S315178037909EFFDDF828A05046FFF7A4FB4146054655
S315178037A05046FEF705FFA91C12D104A8FEF7DAFECC
S315178037B004980BF0A1FF22690F4BCDF810809A421F
S315178037C0CDF818800AD10D48454622F04CFEC8E739
S315178037D06A1CBDD1054BC3F80080B9E74546281C3E
S315178037E018BF012010B0BDE8F08D00BF00308417D8
S315178037F0E0E68217852580178B258017B7E682170F
S315178038007FB506A8074B02210593074B049301231F
S3151780381002930393002340F8143DFFF7CDFD07B0BD
S315178038205DF804FB8B2580179129801738B5084DCD
S315178038302C685CB914200CF00FF8064B0360064B06
S3151780384028600461436001238460C360002038BD0B
S3151780385014338417EDE68217FAE6821710B50948EE
S315178038600BF0A0FA28B100210A2222F0B2FE0446F4
S3151780387000E0022404480BF095FA4B46DB6D034BA8
S315178038801C6010BDBDE78217C7E7821718338417E8
S31517803890F8B506461C4B1C68631C33D090B3002CB6
S315178038A003DB1A48214622F0DEFD0025002C1DDD9C
S315178038B0DDB9284622F0AFF807460BF015FD20B183
S315178038C00BF0F8FC012500240AE042F2107022F072
S315178038D0E5F8384622F09FF8B0F57A7FEDD3013CAC
S315178038E021460B4822F0BFFDE0E701250A200BF0A1
S315178038F0C3FC3DB930462A464FF0FF31BDE8F84044
S315178039000DF026BAF8BD00BF18338417CFE7821794
S31517803910F2E782170020704703490020034B5B1A92
S31517803920C9F83830704700BF0000801790DA8817BB
S31517803930D9F83030002023F47F6323F00F03C9F8BA
S31517803940303070474FF48042C9F8F420D9F8F41014
S315178039500020D9F83020521AC9F83020D9F83030DB
S315178039601B0C1B04C9F83030D9F83020C9F8F02061
S31517803970704700207047D9F838100020D9F83020C2
S31517803980521AC9F83020D9F8303023F47F6323F0E0
S315178039900F03C9F83030D9F83020C9F8402070475E
S315178039A0D9F840300020A3F52003C9F84030704776
S315178039B0D9F8003041F23C1200201A647047D9F8C2
S315178039C040300020F83BC9F84030D9F84020C9F874
S315178039D048207047D9F85C30BBB1D9F85C305B6842
S315178039E01BBA03F580531F3323F01F03C9F86430BE
S315178039F0D9F86410D9F84020521AC9F84020D9F856
S31517803A004020D9F86410C9F860200020704700203C
S31517803A1070470020704700207047002070470000CD
S31517803A2008B502480BF016FC002008BDFAE7821786
S31517803A3008B505480BF00EFC14F0EEF903480BF0A9
S31517803A4009FC002008BD00BF02E88217DC798317BE
S31517803A5010B50A214FF4E13203484C460BF0DBF9D7
S31517803A60A060002010BD00BF0AE8821708B5A32002
S31517803A70FEF77BFC002008BD012010F049B8D9F865
S31517803A80042008B512050BD4D9F830204946A2F17F
S31517803A90BC52C9F84420F822D9F8480021F0E7FE2D
S31517803AA0002008BDD9F8042008B512050ED4D9F818
S31517803AB060205AB1D9F86000D9F85C10D9F864201B
S31517803AC021F0D5FED9F86020C9F85C20002008BD02
S31517803AD0D9F8001008B569B9D9F84020503AC9F80D
S31517803AE04020D9F84020C9F800205022D9F8000084
S31517803AF021F09CFE002008BD704770477047000074
S31517803B00D9F8003010B50024D86C2146054A21F023
S31517803B1037F82046FFF7F2FF0A200BF0ADFB204659
S31517803B2010BD00BFF1998317D9F800304FF0805236
S31517803B3010B59A64D9F800400CF0C6FFE06410BD42
S31517803B4008B5FFF7F1FF002008BDD9F82C20B2F190
S31517803B50805F2CBFD9F82C0000207047704710B5AE
S31517803B604C46D9F83400FFF7F9FF4FF0805260635F
S31517803B70C9F82C200CF0A8FFD9F82C304C461844DD
S31517803B80C9F82C00D9F83800FFF7DFFFE06200206C
S31517803B90D9F82C20C9F8302010BDD9F84030103B01
S31517803BA0C9F84030D9F8403023F00F03C9F84030B0
S31517803BB0FEF7CCB808B50022C9F80400C9F820204A
S31517803BC0034820F025F908B121F064F908BD00BF34
S31517803BD0589E83170020704700207047D9F8043005
S31517803BE0002043F4007343F00103C9F8043070478B
S31517803BF0034A0020034B9B1A034A1360704700BF82
S31517803C00000080178CB684171C33841700207047E2
S31517803C1000207047002070470020704708B5FEF7D0
S31517803C20A5FBFCE708B503480BF014FB23F0C4FC8F
S31517803C30002008BD13E88217D9F8001008B530316F
S31517803C40024823F0EBFA002008BD00BFEC09831762
S31517803C5008B5FEF791F8002008BD08B5FEF798FB62
S31517803C60002008BD10B50BF047FA1021034C044805
S31517803C7022680BF0D0F82060002010BDA8BB8317F0
S31517803C801BE8821708B504480BF0E4FAD9F8000048
S31517803C9015F07EFF002008BD24E8821708B517F0B7
S31517803CA053F9002008BD08B5A420FEF75EFB002057
S31517803CB008BDD9F84C200020C9F85020C9F84C0007
S31517803CC00FF026BFD9F830004FF4200108B5A0F5BC
S31517803CD020000BF0BDFC002008BD08B5FDF754FC8D
S31517803CE0002008BD704708B5FFF7FCFF002008BD08
S31517803CF008B5024820F08CF821F0CCF8F89E831787
S31517803D00FEF70EBB0346084611461847012A70B5BB
S31517803D10154618DD1C46102254F8040F002122F090
S31517803D20FFFB06460A48314622F09DFB691E22464E
S31517803D303046FFF7E7FF041C0146064818BF0124E3
S31517803D4022F091FB01E04FF0FF34204670BD00BF93
S31517803D502CE8821754E882172DE9F04502F1FF38CF
S31517803D60B8F1000F87B007460E4615461C4603F175
S31517803D70040A2EDD5868102205A922F0D1FB059B6F
S31517803D801A7832B33A2A24D0232A22D00922606895
S31517803D9018490DF0BBFBAA1E04F10803B0B1C16820
S31517803DA01548012908BF072111F0010F07D1D0F84F
S31517803DB08C408C4203DB114822F055FB06E00091BC
S31517803DC0002101903846029131460DE04FF0FF30C1
S31517803DD00CE040F20F730093074B38463146424644
S31517803DE0019301230293534600F0A2F907B0BDE869
S31517803DF0F08500BFF0A283172033841712E9821744
S31517803E0010B50C4603480AF0CDFF2146BDE8104091
S31517803E100CF097BFC7E7821738B50446214618486E
S31517803E2022F021FB20460CF0F3FA0128054621D112
S31517803E3014480BF00FFA2268134B9A4201D0134895
S31517803E4004E020460CF070F918B911480BF002FA05
S31517803E5014E020460CF050FA0E480BF0FBF920467A
S31517803E600CF077F908B90C48F0E70C4800250BF0E9
S31517803E70F1F903E00A4801250BF0ECF9284638BD1D
S31517803E803CE982175DE982172705195674E9821767
S31517803E9089E98217A1E98217BCE98217CDE98217CA
S31517803EA0D1E98217012AF8B516461F4605DC0C4B51
S31517803EB01868BDE8F840FFF7AFBF0025012457F80B
S31517803EC0240000211022013422F02AFBFFF7A4FFD9
S31517803ED0002818BF0125B442F1D12846F8BD00BF86
S31517803EE0A8BB831773B505460D480E460AF05AFFC9
S31517803EF008B9002012E00B4921F0F5FB044600288B
S31517803F00F7D1094B019009481968009622F0ABFA48
S31517803F102846214601226B46FFF71EFF02B070BD69
S31517803F20E8E98217F2E98217A8BB8317F6E98217A1
S31517803F302DE9F045551E234C87B01E1D98462A46F7
S31517803F4001230194824600930F460293334600F06D
S31517803F50EFF81DB91C4B1B68236606E0D8F80400DA
S31517803F600021102222F0DCFA2066206E04A905AA09
S31517803F70DFF85080FDF754FE00BB049B08F19000D4
S31517803F80059AD8F86010D21A20F036F8384629469E
S31517803F90324600F01BF888B900F0C2F80523504660
S31517803FA084F85E3039464FF4E0632A468DE8180068
S31517803FB001230293334600F0BBF800E0012007B0D7
S31517803FC0BDE8F08520338417A8BB8317F0B585B075
S31517803FD0164C07460E46154604F1640308460093A9
S31517803FE0114604F168032246019302230CF024FA42
S31517803FF008B10F480FE004F16C032A46019338463F
S3151780400004F1700300940293314602230CF032FCBC
S31517804010054620B107480BF01DF9012003E0E06E35
S3151780402001F012FE284605B0F0BD00BF2033841775
S3151780403002EC821727EC82172DE9F0410546DDF849
S315178040402880D8B216460C46099FC8F800100CF07F
S315178040503FF9024655B9294B29492A48B44218BF10
S31517804060194622F000FAB44207D13CE02648114699
S3151780407022F0F9F9012D0AD012E0089ABA4217D818
S3151780408006984FF4803307990CF0E2F82BE00698E0
S315178040903946079A08AB1FF081FE064618B308E023
S315178040A029461A4822F0DFF96FF00200BDE8F08141
S315178040B00126E8B2089C0CF015F9BC42014603D3D9
S315178040C0134822F0D0F903E01248324622F0CBF992
S315178040D0114822F0C8F96FF00500FEF746F94FF040
S315178040E0FF30BDE8F081089B0C481C44C8F8004097
S315178040F00BF0B0F80020BDE8F08100BF4FEC8217B7
S315178041004BEC821757EC821765EC82177EEC821779
S31517804110A1EC8217D1EC8217EAEC8217CDE98217C8
S3151780412010B5FDF72AFE044608F09CF9204610BD07
S315178041302DE9F04D8EB09A469046179C169E09919A
S31517804140D4F88C30F107079043EA0603C4F88C300D
S3151780415028D5B94D00214FF49872284621F066FB71
S31517804160B6480AF0CFFEC5F8880005F190001FF013
S31517804170F3FE0CF02FF807460CF03CF8394602464A
S3151780418005F190001FF0F3FE05F19000FDF79AFCFC
S3151780419005F190001FF0A7FFA920FEF7E6F8012387
S315178041A0C5F88C30B20740F1F18000200CA9804504
S315178041B00DAA0C904FF0000B0D90C8BFDAF80000CF
S315178041C00CF010F99C4F05460120FEF7CEF82846CD
S315178041D00CF02EF9C7F854B0C7F850B005460CF056
S315178041E017F9012879D19648294622F03CF92A6889
S315178041F0944BD7F888B09A4205D093480BF02AF893
S315178042004FF0FF3030E00220FEF7AFF828460BF06C
S315178042108BFF28B98D480BF01DF86FF0010023E04E
S315178042200320FEF7A2F828460CF066F8BBF1000FBC
S315178042300FD087480BF00EF828460BF08AFF28B95F
S31517804240844822F010F96FF002000DE082480BF0D7
S3151780425001F80420FEF789F8697F022908D07F487C
S3151780426022F001F96FF00300FEF77FF800253EE094
S31517804270002D3CD00520FEF778F8AB7F022B0ED0A9
S3151780428001D8012B02E0042B02D00E2B07D00DE0AC
S31517804290734A28460021131D0BF075FF0EE005F1B2
S315178042A040033B65EB681BBA7B6507E0079B6D4848
S315178042B0196822F0D8F86FF00400D5E7DFF8C0B197
S315178042C029464022584621F00DFB062001234BF83C
S315178042D0045C7B64FEF749F809E0079B5D466248F4
S315178042E0196822F0C0F86FF06F00FEF73EF87B6D05
S315178042F0DFF844B10BB95D482EE028460CF088F8F4
S31517804300012819D1AB7F05F140028BF85D30EB7F21
S315178043108BF85C302B7F8BF85E30EB681BBA1344B7
S31517804320CBF84C302B691BBACBF858306B7F032BE5
S315178043308BF85F3002D103E04D480DE0182B0ED174
S315178043403D4803210DAB00F160020CF0A7F9002858
S3151780435010DA02300ED047480AF07CFF60E0DBF8AF
S3151780436044302BB1DBF818301BBACBF8603001E03C
S315178043704148F1E797F85D202F4B0E2ABD6401BFA0
S315178043801A6D196E9A65521808BF1A66720711D573
S31517804390294B93F85D20022A44D193F85E30052B7A
S315178043A046D1099841465246FFF710FE002840F03D
S315178043B02681804616F0080764D1F00600F1B6808C
S315178043C0B30610D5254604F1900B55F86C1F584641
S315178043D00CF0A2F95846294604F170020CF0C6F97A
S315178043E0002840F00C8194F85E0000F08FFA05469D
S315178043F0002840F0B28016F4F86F00F0AE800FB147
S31517804400FDF7BAFC94F85E000BF04EFF94F85E2029
S3151780441001461A4822F027F86FF00700FDF7A5FF27
S315178044200120ECE00E2AB8D0042A40F0C080B4E709
S315178044300E2B40F0BC80B4E72033841707ED821724
S315178044400EED82172705195677E982178CE9821799
S31517804450A1E98217BFE98217CDE9821740ED821746
S31517804460703384175FED821780ED8217A3ED82175D
S31517804470C3ED8217E6ED821710EE8217CDEE8217FF
S3151780448024338417FFF74CFEA36CD4F858B00A93DD
S31517804490E36C59460B93236D0693069A94F85C3012
S315178044A0089394F85D30CDF800B00192626D029250
S315178044B04FF4000203920DAA0492069A07460898AB
S315178044C0FFF7BAFD054630B16FF00500FDF74DFFD2
S315178044D0AB1C54D171E70D995846CBEB0101890076
S315178044E0FDF740FD0720FDF740FF089B0D9A13B98E
S315178044F0069B9B455ED00B9B9B455BD20A9B9A423C
S3151780450058D9636C43B194F82230042B7FF455AF96
S315178045103C480AF09FFE50E73B484FF0FF350AF0BC
S3151780452099FE6FF07300FDF720FF28E0A26E04F165
S315178045307803009304F19000616E04F17403521AA4
S315178045400CF048F800285AD1616F30480AF0FAFA09
S31517804550A16F2F480AF0F6FA32E7710631D4320680
S3151780456037D4F3053ED416F480600AD000954046BA
S3151780457051464FF48062234600F0ABF905462FB1BA
S3151780458002E0002F3BD00546FDF7F6FBE81C04D169
S315178045906FF00600FDF7E9FE07E0691C05D107985D
S315178045A0424609995346FDF7C9FC284627E04FF03E
S315178045B00008FFE6A16D04F19000521A1FF01CFD4A
S315178045C0FBE64020414652462346A847834690B984
S315178045D0C5E78020414652462346A847834600288A
S315178045E0BFD008E04FF48070414652462346A8470D
S315178045F083460028B7D007480AF02CFE58460EB0D7
S31517804600BDE8F08D34EE82176EEE8217B5EE8217FF
S31517804610C2EE8217FBEE82172DE9F041161F002591
S3151780462004460F469846BD420FDA002DC4BF84F85C
S315178046300080013456F8041F0135204621F01BF8F7
S31517804640306821F07DF80444EDE7BDE8F08100007D
S31517804650B0F5806F10B50CD11C6E0748214621F036
S3151780466002FF0F20FDF781FED9F80000A047012031
S3151780467010BD002010BD00BF15EF8217B0F5806FF3
S31517804680F8B50C4617461D4623D113480AF08AFB00
S31517804690A0B10021102221F043FF002C064605DD2C
S315178046A021463A460A23FFF7B7FF07E00B480AF079
S315178046B079FB014610B1304620F0DDFF2C6E084895
S315178046C0214621F0D0FE0F20FDF74FFEA04701208F
S315178046D0F8BD0020F8BD00BF4EEF82172EFA82175D
S315178046E057EF821770B50E460A4815461C460AF0CC
S315178046F059FB40B1084920F0F6FF20B9616D07488C
S315178047000AF020FA03E0236E3046294698470020A0
S3151780471070BD00BFE8E9821791EF821794EF821771
S31517804720B0F5806F30B5154687B010D102AC1A6ECA
S315178047300849204621F08AFE2B68002002228DE840
S31517804740180001466B4600F08DFF012000E000201F
S3151780475007B030BD9DEF8217B0F5806F2DE9F7450D
S315178047608A4690461F463FD11E6893F82230042BFF
S3151780477001D0002608E001AB304601216A460BF0CE
S3151780478002FD019B002BF4D0BAF1000F15DD002531
S315178047902C4658F82400013420F0D2FF544500F1F6
S315178047A001000544F5D128460BF056F821464246B6
S315178047B020230546FFF730FF06E00D480AF0F2FA88
S315178047C00C4D002818BF05463C6E0B48214621F034
S315178047D04AFE0F20FDF7C9FD3146064A2B46D9F802
S315178047E00000A047012000E0002003B0BDE8F08557
S315178047F02EFA8217F1998317A1EF82177FB5044690
S31517804800036F00F16C06C16E00F1900503930029C2
S3151780481032D028460BF080FF2846314603AA0BF084
S31517804820A5FF0546002838D1E06E02F0C3F8E06E82
S3151780483029461B4A1FF02EF9031E01DA023313D1BC
S3151780484018480AF0AFFA0546B0B1E66E20F078FF41
S315178048500123154901932B46124A013000903046A1
S3151780486001F0B6FE002807DA1FF0BEF90F49024697
S315178048700F4821F0F8FD10E02046FDF7EFF90F20DD
S31517804880FDF773FD216EE26E0A4821F0ECFD204696
S31517804890FDF7FCF908480AF0DDFC04B070BD00BFCF
S315178048A0EBEF82172EFA8217EAEF821772C08217FA
S315178048B0F2EF821705F0821741F08217B0F5806FF5
S315178048C008B504D11846FFF799FF012008BD0020C7
S315178048D008BDF8B50E46074614461D46FCF798FDE3
S315178048E032462B4620463946069EB04795F85D30A8
S315178048F0012B09D0B4F5007F06D06FF00800FDF7BD
S3151780490034FD4FF0FF30F8BD0020F8BD014B53F84A
S3151780491020007047BC9D821737B505460C46074859
S3151780492007498DE80C002A46091A064B8910594300
S3151780493023460CF049FE03B030BD00BFC024841750
S315178049400C2E8417B76DDBB608B50649064821F0D5
S315178049508AFD06480AF07EFC05480AF07BFC002093
S3151780496008BD00BFB19C8317F0F08217F5F0821748
S315178049703BF182172DE9F04DADF5067D00AF054663
S315178049800E46144620F0DCFE2C492A460A3020F0C3
S315178049900700ADEB000D6846E84621F057FD381D38
S315178049A0694620F001FE00283DD0D7F80C326D46B7
S315178049B0D4F800A0DB0018335046ADEB030D20F07A
S315178049C0BFFE51466B460246381D20F02AFE18B3A5
S315178049D060680AF091FE404620F0B2FE01300AF078
S315178049E03BFF6060D8B1414620F045FEA0680AF0CB
S315178049F083FE304620F0A4FE01300AF02DFF804654
S31517804A00A06018B1314620F036FE05E060680AF0DE
S31517804A1073FEC4F8048002E00020AD4609E06FF00B
S31517804A200B00AD4605E00648D7F8141221F01BFD9A
S31517804A30162007F50677BD46BDE8F08D85F18217F6
S31517804A408AF182172DE9F84588469246054628B396
S31517804A5028462C2120F067FE044680B9284620F088
S31517804A606FFEF0B101300AF0F7FE064618B96FF0FF
S31517804A700B00BDE8F885294620F0FDFD1BE0471B96
S31517804A800FD0781C0AF0E8FE06460028EFD0294694
S31517804A903A4620F0F8FD0023F3550CE00120BDE8D7
S31517804AA0F88500263046651C0AF026FE002CCFD1E5
S31517804AB02046BDE8F88530463A2120F034FE054673
S31517804AC028B10023681C2B7020F0FCF90546304668
S31517804AD020F0F8F9074620F033FE0028E2D0294661
S31517804AE038465246C04705460028DBD030460AF07E
S31517804AF003FE2846BDE8F88530B5154685B0BAB1A8
S31517804B00B0B1019101AA0F49002302930393FFF7CE
S31517804B1099FF044678B9029B7BB10399284620F002
S31517804B20AAFD03980AF0E8FD02980AF0E5FD02E06F
S31517804B306FF0150003E0204601E06FF0010005B025
S31517804B4030BD00BF754980170023836018467047AC
S31517804B502DE9F04180460C4B0C4CE41A1E46E410A6
S31517804B6008B900270DE00025A54206EBC507F8DA38
S31517804B70054B404653F8351020F0B5FD08B1013581
S31517804B80F2E73846BDE8F081502E8417B82E841781
S31517804B9038B50D46084C094909481FF0CFFF2146FD
S31517804BA000220848FFF74EFF284621460022FFF7C6
S31517804BB049FF002038BD00BFC94B8017494B801766
S31517804BC088B78317A5F1821710B58AB005AA00236F
S31517804BD001920C460F4A07930893009303930AABE7
S31517804BE00690029213E90F001FF012FC059B73B112
S31517804BF00CB9002209E0204620F0A2FD0028F8D043
S31517804C002046FFF7A5FF10B14268059B9A600020E2
S31517804C100AB010BD88B783172DE9F0410024DFF855
S31517804C206C80C0B006680546214601A8FC22009410
S31517804C3020F0FCFDD8F80030114F2BB111480AF03F
S31517804C40B1F8C8F800403860386830B90E48314630
S31517804C506A46FFF751FF80B905E031466A46FFF786
S31517804C604BFF0028F2D1684620F06AFD28B16846C6
S31517804C70FFF76EFF08B14368AB6040B0BDE8F081BF
S31517804C805034841799F28217A5F18217F4A58317E2
S31517804C9030B538B10C78302C04D14C7804F0DF0459
S31517804CA0582C12D00B44994206D0094D0C782C5D9E
S31517804CB020B114F0440F04D12AB930BD14F0040F73
S31517804CC0F9E70131EFE7116030BD0231EAE700BF3E
S31517804CD0FAC082170023C3601846704738B50D4649
S31517804CE0084C094909481FF029FF21460022084820
S31517804CF0FFF7A8FE284621460022FFF7A3FE0020CD
S31517804D0038BD00BF7D4D8017D54C801788B7831760
S31517804D10A4F2821770B5054620F012FD68B1074ECA
S31517804D202978304620F0FFFC044608B1801B70BDF9
S31517804D300348297821F097FB204670BDF6DC821749
S31517804D40F4F2821770B5054620F0FAFC01280ED9C1
S31517804D50084E6978304620F0E6FC044608B1801B79
S31517804D6070BD6978044821F07EFB204670BD00200F
S31517804D7070BD00BFF1DC821728F3821770B58AB031
S31517804D8005AA002301920C46144A079308930093A9
S31517804D9003930AAB0690029213E90F001FF038FBB4
S31517804DA0059BBBB11CB9059B0022DA6012E0204631
S31517804DB020F0C6FC0028F6D02046059DFFF7AAFFEF
S31517804DC000F007062046FFF7BDFF054B53F8200076
S31517804DD03043E86000200AB070BD00BF88B78317DC
S31517804DE0DCA3821737B50025044602230120214606
S31517804DF001AAFFF74DFF019B9C4217D0A21C934235
S31517804E0007D12278302A04D1627802F0DF02582A35
S31517804E100CD0052D1A7802D03A2A01D006E02AB985
S31517804E2001355C1C062DE0D1002001E04FF0FF30E4
S31517804E3003B030BD1D4B2DE9F34100241B78054681
S31517804E40DFF87C8006688DF80430D8F800308DF846
S31517804E5005408DF80640164F2BB1164809F0A2FF6C
S31517804E60C8F800403860386830B91348314601AA07
S31517804E70FFF742FEB8B905E0314601AAFFF73CFEB7
S31517804E800028F2D101A820F05BFC60B101A8FFF7DA
S31517804E9041FF00F0070401A8FFF754FF074B53F8AB
S31517804EA020002043E86002B0BDE8F0814ABE821731
S31517804EB05434841765F38217A4F28217DCA38217FA
S31517804EC0F8A583172DE9FF4D06460C46009317461E
S31517804ED012B1D0F804B000E09346614B3568002CC8
S31517804EE008BF1C46012F7ED0F36803F0070808F128
S31517804EF0FF33052B77D8DFE803F0030E253E5E6771
S31517804F004FF0FF330020214603AAFFF7C1FE039B0C
S31517804F1093F800A027E003AA4FF0FF33012021461C
S31517804F20FFF7B6FE039B1A78002A4DD1A21C93422F
S31517804F3059D12378302B56D1637803F0DF03582B5A
S31517804F4051D141E0237803F0DF02592A09D0542A38
S31517804F5007D0A3F13002012A03D903F0D703462BD2
S31517804F6032D194F801A01AF1000A18BF4FF0010A3E
S31517804F70CAF1000A2BE04FF0000AA44661460323C4
S31517804F80002003AACDF804C0FFF782FE039BDDF845
S31517804F9004C09C4518D0BAF1030F1A7802D02E2A6E
S31517804FA001D011E082B90AF1010A03F1010CBAF1B5
S31517804FB0040FE3D117E02046FFF714FF003018BF20
S31517804FC00120C0F1000A02E04FF0FF3A02E0BAF181
S31517804FD0FF3F08D1234B29462246234813F808302A
S31517804FE021F041FA37E0009B13F0020A02D04FF006
S31517804FF0000A30E0012F03D024D3022F09D02AE0EC
S31517805000F3681807F3D51948294621F02CFABA46BA
S3151780501021E0F368990613D45A06E8D52846104C2A
S3151780502009F085FF5946002818BF044610482246BE
S3151780503021F019FA5846214620F055FB0028D6D07C
S315178050400C4803E0F368DB06D1D50B4829464FF0A9
S31517805050010A21F008FA504604B0BDE8F08D00BF6A
S31517805060F1998317F6DC82176CF38217ACF38217E4
S31517805070E9F38217C9F3821701F482174FF4C02315
S315178050800020136070470000034A0020C9F82420C7
S315178050900122C9F82820704704C282172DE9F045E6
S315178050A0ADF5005D8BB0002013F034FD0746002860
S315178050B03AD014F0CDFC002838D10DF1270626F00A
S315178050C01F06304609F0E6FF014658BB384601AA47
S315178050D0FFF7D4FF044668BB22461C491C4821F0BB
S315178050E0C2F9FD6E05F5FF50C5F1000A1F30294636
S315178050F000EA0A0024F004F92946804601982844D4
S31517805100013800EA0A0024F0FBF8D7F830514246F6
S31517805110334601462046A84740450DD00D480AF02C
S3151780512099F807E00C460AE00B4900E00B490C4852
S3151780513021F099F9012402E00A480AF08BF82046F3
S315178051400DF5005D0BB0BDE8F08500BFF1998317AB
S3151780515042F48217117C83172FF482171EF4821755
S31517805160B06E8317679883172DE9F045ADF5005D07
S315178051708BB0002013F0CEFC064638B114F068FCCD
S31517805180044628B11D4809F0E7FE32E01C48FAE7C5
S315178051903046214601AAFFF771FF804638BBB46EA9
S315178051A00DF1270525F01F0504F5FF50C4F1000AF8
S315178051B01F30214600EA0A0024F0A2F82146074646
S315178051C001982044013800EA0A0024F099F8D6F8A5
S315178051D02C413A462B4601464046A047B84201D055
S315178051E00848D0E72846012109F00AFF01E0204642
S315178051F0C9E70DF5005D0BB0BDE8F0851EF4821783
S315178052002FF482175BF4821738B504461A4809F0CB
S3151780521079FE054620460BF0FBF8012823D1226834
S31517805220164B9A4201D016481EE020460AF07CFF9C
S3151780523008B9144818E02DB120460AF08AFF08B934
S31517805240114811E0A37F062B01D010480CE0216C82
S3151780525004F1400009BA09B90D4805E050F8042B46
S31517805260002AFBD104E00B4809F0F4FF012038BD72
S31517805270BDE838400BF06CBD07ED82172705195628
S3151780528068F482177AF482178AF4821798F4821749
S31517805290A8F48217B6F48217012A10B506DD586866
S315178052A00021102221F03CF9044601E04FF090547A
S315178052B02146044821F0D7F820460021BDE8104042
S315178052C0FFF7A2BFDFF4821703460A46014819463D
S315178052D021F0C9B81BF5821730B585B0D9F80040CB
S315178052E03448216CFFF7F0FF616C3348FFF7ECFF0A
S315178052F032480021FFF7E8FFA16C3148FFF7E4FF3A
S31517805300E16C30480024FFF7DFFF204621F0F4FFD9
S315178053100546D8B12C4821462A4621F0A4F801A87B
S3151780532024B12A49224621F091F802E0284920F033
S31517805330A2F901A8013409F035FD264A01A90028EA
S3151780534018BF0246244821F08EF8DEE722F0D4F8FB
S315178053500146224821F087F8214809F023FD0146A6
S31517805360204821F080F82048D9F8081021F07BF8DA
S315178053701E48D9F8F010FFF7A7FF1D48D9F8301047
S31517805380FFF7A2FF1B48D9F84410FFF79DFF1A486D
S31517805390D9F83C10FFF798FF1848D9F84010FFF74F
S315178053A093FF1748D9F81C10FFF78EFF284605B0CC
S315178053B030BD00BF35F5821741F582174DF5821737
S315178053C057F5821760F5821768F582177BF582176E
S315178053D0EC0983172BF5821785F5821790F58217B7
S315178053E0A2F58217A9F58217BBF58217D1F5821711
S315178053F0DAF58217E4F58217EEF58217F5F5821737
S31517805400FFF5821710B504460A4920F06CF968B182
S315178054102046094920F067F950B12046074920F000
S3151780542062F9003018BF0120404210BD022010BD1E
S31517805430012010BD2BF682170F8E8317EAF5821778
S31517805440012A10B513D0022A1CD15868FFF7DAFF44
S315178054500128044605D0022806D0B0B9FCF7D7FD37
S3151780546014E0FCF7CAFD10E0FBF717F80DE0FCF720
S31517805470DCFD074B0749002818BF1946064820F058
S31517805480F2FF02E04FF0FF3400E00024204610BD03
S31517805490E48E831764F6821768F68217012A10B589
S315178054A013D0022A1CD15868FFF7ACFF012804468F
S315178054B005D0022806D0B0B9FCF7EAFD14E0FCF750
S315178054C0B9FD10E0FAF7F3FF0DE0FCF7F3FD074B94
S315178054D00749002818BF1946064820F0C4FF02E07E
S315178054E04FF0FF3400E00024204610BDE48E83176A
S315178054F064F68217AFF68217F7B50BF0F7FA0646FA
S31517805500184809F0A7FE3468B44227D054F8442CBB
